:020000040000FA
:100000000C9448160C9472160C9472160C9472167A
:100010000C9472160C9472160C9472160C94721640
:100020000C9472160C9472160C9472160C94721630
:100030000C9472160C94A0260C9472160C947216E2
:100040000C9472160C9476200C942CCE0C94721690
:100050000C9411870C9407870C9472160C947216EA
:100060000C9472160C9472160C9472160C947216F0
:100070000C9472160C9472160C9472160C947216E0
:100080000C9472160C9472160C947216084AD73B94
:100090003BCE016E84BCBFFDC12F3D6C74319ABD57
:1000A00056833DDA3D00C77F11BED9E4BB4C3E917B
:1000B0006BAAAABE000000803F05A84CCDB2D44E6A
:1000C000B93836A9020C50B9918688083CA6AAAA6C
:1000D0002ABE000000803F004E414E494E4954590F
:1000E000494E46CDCCCC3D0AD7233C17B7D1387703
:1000F000CC2B329595E6241FB14F0A000020410019
:1001000000C84200401C4620BCBE4CCA1B0E5AAE62
:10011000C59D7400407A10F35A00A0724E18090071
:1001200010A5D4E80000E87648170000E40B54025C
:100130000000CA9A3B000000E1F505000080969897
:1001400000000040420F000000A0860100000010E7
:100150002700000000E80300000000640000000029
:10016000000A00000000000100000000002C76D80A
:1001700088DC674F0823DFC1DFAE59E1B1B796E5F0
:10018000E3E453C63AE651997696E8E6C28426EB54
:10019000898C9B62ED407C6FFCEFBC9C9F40F2BA67
:1001A000A56FA5F490055A2AF75C936B6CF9676DFF
:1001B000C11BFCE0E40D47FEF520E6B500D0ED9054
:1001C0002E0300943577050080841E080000204E21
:1001D0000A000000C80C333333330F986E128311BA
:1001E00041EF8D2114893BE65516CFFEE6DB18D191
:1001F000844B381BF77C1D901DA4BBE42420328463
:10020000725E228100C9F124ECA1E53D27504554DE
:10021000470042656400456E636C6F7375726500DC
:100220002568753A25303268750025303268753A90
:100230002530326875002568756420253032687570
:100240003A25303268750020202020202020002010
:10025000202020001FE0201020102010102010204F
:100260002010201030300840048003001FE03FF0D1
:100270003FF03FF01FE01FE03FF03FF03FF00FC0C6
:10028000078003001FFFF81FFFF80410400208203A
:10029000020820041040082080104100104100088E
:1002A00020800410400000001FFFF81FFFF86E6F51
:1002B00074696669636174696F6E200063616E635F
:1002C000656C005072696E742041626F727465646F
:1002D000004469736D6973730055492041626F7200
:1002E000746564004D323500526573756D65005557
:1002F000492050617573650050617573696E672E92
:100300002E2E00726573756D65004D32340046699E
:100310006C2E204469612E004520696E206D6D5E53
:10032000330020082046616374002008204D617866
:10033000002008204D696E004F6666004F6E004138
:1003400075746F74656D7000452073746570732FDC
:100350006D6D005A2053746570732F6D6D005920B8
:1003600053746570732F6D6D0058205374657073EE
:100370002F6D6D00416476616E6365642053657412
:1003800074696E67730046696C616D656E740054C4
:10039000656D706572617475726500537465707314
:1003A0002F6D6D00436F6E66696775726174696F5A
:1003B0006E00526573746F72652044656661756C7A
:1003C0007473004C6F61642053657474696E677355
:1003D0000053746F72652053657474696E6773009F
:1003E0004F6666004F6E00536F756E640050726FFB
:1003F0006265205A204F66667365740041647661B9
:100400006E6365642053657474696E6773004D6133
:10041000696E003135300035004245443A20455080
:10042000434F53203130304B0052756E6177617904
:100430002057617463683A204F4E004D6178205414
:10044000656D7000323735004D696E2054656D70F2
:1004500000350045313A204550434F53203130306C
:100460004B005053550047656E65726963005072CA
:100470006F746F636F6C00312E30004261756400E1
:10048000323530303030004D656C7A690042696C2D
:10049000696E656172204C6576656C696E670045B2
:1004A00078747275646572730031006D61726C6985
:1004B0006E66772E6F72670052616973637562654D
:1004C00020523200323032312D30392D303300326B
:1004D0002E302E392E32004D61726C696E005468D8
:1004E00065726D6973746F727300426F617264201C
:1004F000496E666F005072696E74657220496E664F
:100500006F004D61696E004732380A473239205713
:100510000A4D31313720557365722053637269700B
:100520007420446F6E65004D313430205338300AEA
:100530004D31303420533233300A4D31313720556C
:100540007365722053637269707420446F6E650026
:100550005072656865617420666F7220504554471B
:1005600000486F6D6520262055424C20496E666F0D
:10057000004D61696E003F004261636B0053746F10
:100580007000417474616368204D65646961004D59
:100590003231005072696E742066726F6D204D6545
:1005A0006469610052656C65617365204D656469BD
:1005B00061004D323200437573746F6D20436F6D6F
:1005C0006D616E647300436F6E6669677572617406
:1005D000696F6E0054656D70657261747572650047
:1005E0004D6F74696F6E00537461727420486F733D
:1005F00074205072696E7400526573756D65205079
:1006000072696E740041626F7574205072696E7405
:1006100065720054756E650053746F702050726976
:100620006E74005061757365205072696E74004974
:100630006E666F2053637265656E003F0053746190
:100640007274205072696E740043616E63656C0051
:100650005072696E740043616E6E6F7420656E74C3
:100660006572207375626469723A200002202E2E32
:10067000000152656672657368004D61696E002104
:1006800000486F74656E6420746F6F20636F6C64D4
:10069000004261636B0050726F63656564004D6F6B
:1006A00074696F6E0044697361626C652053746590
:1006B0007070657273004D3834004175746F204856
:1006C0006F6D6500473238004D61696E005072658C
:1006D00068656174202420456E6400507265686509
:1006E00061742024204265640054656D70657261F8
:1006F00074757265000D02436F6F6C646F776E00E6
:1007000050726568656174202400426564004E6F14
:100710007A7A6C65004D61696E004261627973742A
:100720006570205A00466C6F7700426564004E6F1A
:100730007A7A6C65005370656564004D61696E007E
:100740006F70656E00545249474745524544003A20
:1007500020007A5F6D696E00795F6D696E00785F69
:100760006D696E005265706F7274696E6720656E98
:100770006473746F70207374617475730A002074ED
:100780006F6F206C6F6E6720657874727573696F18
:100790006E2070726576656E7465640A0020636F02
:1007A0006C6420657874727573696F6E2070726501
:1007B00076656E7465640A00486F6D652025732543
:1007C00073257320466972737400000000000000F6
:1007D0000000000000005761726E696E673A2048A1
:1007E0006F6D696E672042756D702044697669731C
:1007F0006F72203C20310A000202040000524300C4
:10080000003E43000016430000A0400000A040004E
:100810000000400000524300003E43000016430029
:1008200000000000000000000000005365747469BF
:100830006E67732053746F72656400454550524F64
:100840004D20496E697469616C697A65640A0000BB
:10085000009643000096430000A0400000C84100FD
:1008600000A2420000A2420000D04300C04644B8AB
:100870000B0000B80B0000640000001027000024EB
:10088000F4D43050C38E20C2A24017828B70111254
:100890007A910D816CD90AA861E108C75866076191
:1008A0005143061E4B5D05C145A7041A41110409B9
:1008B0003D9803713931034036DB0265339102D430
:1008C000305402802E1D02632CEE01752AC501B042
:1008D00028A001102781018F2564012B244B01E002
:1008E000223401AC211F018D200D01801FFC0084EA
:1008F0001EED00971DDF00B81CD200E61BC60020CD
:100900001BBC00641AB200B219A8000A19A0006A40
:10091000189900D117910040178B00B5168400314B
:10092000167E00B31579003A157300C7146F00588E
:10093000146A00EE1366008813630025135E00C777
:10094000125B006C12570015125400C11151007057
:10095000114F0021114B00D61049008D1047004661
:1009600010440002104200C00F4000800F3E0042C1
:100970000F3C00060F3B00CB0E3800930E37005C97
:100980000E3500270E3400F30D3200C10D310090FA
:100990000D3000600D2E00320D2D00050D2C00D9FC
:1009A0000C2B00AE0C2900850C29005C0C270035AF
:1009B0000C27000E0C2600E80B2400C40B2400A01A
:1009C0000B23007D0B23005A0B2100390B2100184B
:1009D0000B2000F80A1F00D90A1E00BB0A1E009D4A
:1009E0000A1D00800A1D00630A1C00470A1B002C18
:1009F0000A1B00110A1A00F7091A00DD091900C4C0
:100A0000091900AB091900920917007B0918006346
:100A10000917004C09160036091600200916000AAD
:100A2000091500F5081500E0081400CC081400B8FA
:100A3000081400A4081400900813007D0812006B2D
:100A40000813005808120046081200340811002349
:100A50000811001208110001081100F0071000E051
:100A6000071000D0071000C0071000B0070F00A14A
:100A700007100091070E0083070F0074070F006531
:100A8000070E0057070E0049070E003B070D002E0A
:100A9000070E0020070D0013070D0006070D00F9D3
:100AA000060C00ED060D00E0060C00D4060C00C894
:100AB000060C00BC060C00B0060C00A4060B009946
:100AC000060C008D060B0082060B0077060B006CEF
:100AD000060B0061060A0057060B004C060A00428E
:100AE000060A0038060A002E060A0024060A001A22
:100AF000060A001006090007060A00FD050900F4B1
:100B0000050900EB050900E2050900D9050900D037
:100B1000050900C7050900BE050900B5050800ADB7
:100B2000050800A50509009C050800940508008C2F
:100B3000050800840508007C050800740508006CA1
:100B4000050700650508005D050700560508004E0D
:100B50000507004705070040050800380507003174
:100B60000507002A050700230507001C05060016D7
:100B70000507000F0507000805060002050700FB32
:100B8000040600F5040700EE040600E8040600E28F
:100B9000040700DB040600D5040600CF040600C9E4
:100BA000040600C3040600BD040600B7040600B135
:100BB000040500AC040600A6040600A00405009B82
:100BC00004060095040500900406008A04050085CB
:100BD000040500800406007A040500750405007011
:100BE0000405006B04050066040500610405005C53
:100BF00004050057040500520405004D0405004893
:100C0000040500430405003E0404003A04050035D1
:100C1000040500300404002C04050027040400230C
:100C20000405001E0404001A040400160405001143
:100C30000404000D04040009040500040404000079
:100C4000040400FC030400F8030400F4030400F0AF
:100C5000030400EC030400E8030400E4030400E0E0
:100C6000030400DC030400D8030400D4030400D010
:100C7000030400CC030400C8030300C503030024DD
:100C8000F404D9201BC40C5C0E9804C4095F0265EF
:100C9000077101F405F900FB04B30048048700C1A3
:100CA0000369005803550003034500BE023A00845F
:100CB00002310053022A002902250004022000E428
:100CC000011C00C8011900AF01170098011400842D
:100CD000011300710110006101100051010E004369
:100CE000010D0036010B002B010B0020010B00153C
:100CF0000109000C01090003010800FB000800F3D2
:100D0000000800EB000700E4000600DE000600D843
:100D1000000600D2000600CC000500C7000500C296
:100D2000000500BD000400B9000400B5000400B1D6
:100D3000000400AD000400A9000400A5000300A207
:100D40000003009F0004009B00030098000300952F
:100D500000020093000300900003008D0002008B4E
:100D60000003008800020086000200840003008166
:100D70000002007F0002007D0002007B000200797B
:100D80000002007700010076000200740002007289
:100D9000000100710002006F0002006D0001006C94
:100DA0000002006A0001006900020067000100669D
:100DB00000010065000100640002006200010061A2
:100DC000000100600001005F0002005D0001005CA6
:100DD0000001005B0001005A0001005900010058A9
:100DE00000010057000100560001005500010054A9
:100DF00000010053000000530001005200010051A7
:100E0000000100500001004F0001004E0000004EA4
:100E10000001004D0001004C0001004B0000004BA0
:100E20000001004A0001004900010048000000489C
:100E30000001004700010046000000460001004597
:100E40000000004500010044000100430000004391
:100E5000000100420000004200010041000000418A
:100E6000000100400001003F0000003F0001003E83
:100E70000000003E0001003D0000003D0001003C7C
:100E80000000003C0000003C0001003B0000003B73
:100E90000001003A0000003A00010039000000396A
:100EA0000001003800000038000000380001003761
:100EB0000000003700010036000000360000003658
:100EC000000100350000003500000035000100344D
:100ED0000000003400000034000100330000003343
:100EE0000000003300010032000000320000003238
:100EF000000100310000003100000031000100302D
:100F000000000030000000300001002F0000002F22
:100F10000000002F0000002F0001002E0000002E16
:100F20000000002E0001002D0000002D0000002D0B
:100F30000000002D0001002C0000002C0000002CFF
:100F40000000002C0001002B0000002B0000002BF3
:100F50000000002B0001002A0000002A0000002AE7
:100F60000000002A000100290000002900000029DB
:100F700000000029000000290001002800000028CE
:100F800000000028000000280000002800010027C1
:100F900000000027000000270000002700000027B5
:100FA00000010026000000260000002600000026A8
:100FB000000000260001002500000025000000259B
:100FC000000000250000002500000025000100248D
:100FD0000000002400000024000000240000002481
:100FE0000001002300000023000000230000002374
:100FF0000000002300000023000000230001002265
:101000000000002200000022000000220000002258
:10101000000000220001002100000021000000214A
:10102000000000210000002100000021000000213C
:10103000000100200000002000000020000000202F
:101040000000002000000020000000200000002020
:101050000001001F0000001F0000001F0000001F13
:101060000000001F0000001F0000001F0001001E04
:101070000000001E0000001E0000001E0000000412
:101080003700001E290000511B00005810000010FE
:10109000090000CC0400007802000041010000209B
:1010A000436F756E7420583A000042656400453104
:1010B000004500626564002C2073797374656D20AF
:1010C00073746F7070656421204865617465725F28
:1010D00049443A200048656174696E672046616939
:1010E0006C65640048656174696E67206661696C4F
:1010F0006564004572723A204D415854454D500088
:101100004D415854454D502074726967676572654A
:1011100064004572723A204D494E54454D50004D81
:10112000494E54454D502074726967676572656415
:1011300000544845524D414C2052554E415741595B
:1011400000546865726D616C2052756E61776179CB
:1011500000202F002042403A0020403A00000912AF
:101160001B242D363F48415A536C657E7719100B6E
:10117000023D342F265158434A757C676E323B201E
:1011800029161F040D7A7368615E574C452B22396E
:10119000300F061D14636A7178474E555C646D7696
:1011A0007F4049525B2C253E3708011A137D746F2E
:1011B0006659504B42353C272E1118030A565F449E
:1011C0004D727B60691E170C053A3328214F465D2E
:1011D000546B627970070E151C232A31384148532D
:1011E0005A656C777E09001B122D243F3658514AF0
:1011F000437C756E671019020B343D262F737A619C
:1012000068575E454C3B3229201F160D046A6378EF
:10121000714E475C55222B3039060F141D252C3793
:101220003E0108131A6D647F7649405B523C352EAF
:101230002718110A03747D666F5059424B171E051B
:101240000C333A21285F564D447B7269600E071CAF
:10125000152A233831464F545D626B7079434F4DE8
:101260004D554E49434154494F4E004452595255F1
:101270004E004552524F525300494E464F0045438F
:10128000484F0053544F505045442E20005072692F
:101290006E7465722073746F707065642064756518
:1012A00020746F206572726F72732E2046697820E9
:1012B000746865206572726F7220616E6420757348
:1012C00065204D39393920746F20726573746172ED
:1012D000742E202854656D70657261747572652076
:1012E00069732072657365742E2053657420697468
:1012F0002061667465722072657374617274696EC0
:1013000067290A004E6F20436865636B73756D2013
:1013100077697468206C696E65206E756D626572A0
:101320002C204C617374204C696E653A20004E6F1E
:1013300020436865636B73756D2077697468206CF2
:10134000696E65206E756D6265722C204C617374D8
:10135000204C696E653A2000636865636B73756D38
:10136000206D69736D617463682C204C6173742007
:101370004C696E653A20004C696E65204E756D6251
:101380006572206973206E6F74204C617374204CF9
:10139000696E65204E756D6265722B312C204C6133
:1013A0007374204C696E653A20004D313130005322
:1013B000657269616C20737461747573206D6973F3
:1013C0006D617463680A005344207265616420652E
:1013D00072726F720A002121204B494C4C206361CC
:1013E0007573656420627920746F6F206D75636812
:1013F00020696E6163746976652074696D65202D5E
:101400002063757272656E7420636F6D6D616E64BA
:101410003A2000627573793A2070617573656420B3
:10142000666F7220696E7075740A00627573793A1E
:101430002070617573656420666F722075736572C4
:101440000A00627573793A2070726F63657373690D
:101450006E670A004D6564696120496E7365727438
:10146000656400506C656173652052657365740036
:101470005052494E5445522048414C544544002551
:10148000533A20255300706F7765726F6666004B84
:10149000494C4C45442E20005072696E7465722090
:1014A00068616C7465642E206B696C6C28292063FC
:1014B000616C6C6564210A006563686F3A0045726F
:1014C000726F723A002F2F616374696F6E3A007306
:1014D000746172740042696C696E656172204C655A
:1014E00076656C696E6720477269643A0A004F46F8
:1014F000460A004661646520486569676874200093
:10150000426564204C6576656C696E6720004661B3
:10151000696C656420746F20656E61626C65204241
:101520006564204C6576656C696E670A00496E7665
:10153000616C6964206D6573682E0A0050726F6279
:10154000696E6720506F696E740025532025692FDE
:101550002569002E0A002F0050726F62696E6720A5
:101560006D65736820706F696E7420002028445286
:101570005952554E2900473239204175746F204227
:101580006564204C6576656C696E67003F20284C69
:101590002C522C462C4229206F7574206F662062D5
:1015A0006F756E64732E0A003F2856296572626F4C
:1015B0007365206C6576656C20696D706C61757300
:1015C00069626C652028302D34292E0A004261643E
:1015D000205A2076616C75650A004E6F2062696C36
:1015E000696E65617220677269640A00204A002092
:1015F000530020204D3230352042003F4A206F7585
:1016000074206F662072616E67652028302E30313D
:1016100020746F20302E33290A002E0A00206E6FAE
:10162000742064697361626C65642E205368617212
:1016300065642077697468002058004F4646004F63
:101640004E0020204D61783A2000200020204D6976
:101650006E3A2000203B200020204D3231312053B3
:101660000020496E76616C696420657874727564D7
:101670006572200047322F47332062616420706119
:1016800072616D65746572730A00536C6565702EC6
:101690002E2E005A2050726F6265205061737420A4
:1016A0004265640A005A2050726F6265205061736F
:1016B0007420426564004732384C3000205A3A208A
:1016C0000020593A200042656420583A20004D65B8
:1016D000736820706F696E74206F7574206F662058
:1016E00072616E67650A004D302053746F70004D53
:1016F000312053746F7000436F6E74696E756500AE
:10170000436C69636B20746F20526573756D652E31
:101710002E2E00616C736F20656E61626C656429AA
:101720000A004E6F204D6F76652E00456E64206670
:10173000696C65206C6973740A00426567696E2084
:1017400066696C65206C6973740A004E6F206D6564
:101750006469610A00526573756D696E6720534450
:1017600000526573756D6500506175736520534453
:1017700000286E6F2066696C65290043757272657A
:101780006E742066696C653A20005344207072695B
:101790006E74696E67206279746520004E6F7420E4
:1017A0005344207072696E74696E670A002E0A00D5
:1017B00044656C6574696F6E206661696C65642050
:1017C00028726561642D6F6E6C79292C2046696CD6
:1017D000653A20002569730025696D20256973002D
:1017E0002569682025696D202569730025696420B5
:1017F0002569682025696D20256973002569792090
:10180000256964202569682025696D202569730094
:101810005072696E742074696D653A20007061754C
:101820007365006F6B006F6666007E12791272122C
:101830006B125D1244454255473A004D313132201A
:1018400053687574646F776E004D313133205300E7
:101850005261697363756265205232204F46462E8D
:101860000020204D39322058002F2F004D313435C3
:1018700020533C696E6465783E206F7574206F66F6
:101880002072616E67652028302D31290A002044BE
:101890000020204D32303020530020204D32303196
:1018A00020580020450020204D32303320580020A1
:1018B000540020520020204D32303420500020208F
:1018C0004D32303620580046523A0020466C6F7731
:1018D0003A200020440020490020204D33303120A0
:1018E000500064697300656E0043290A0061626CF0
:1018F000656420286D696E2074656D702000436FEB
:101900006C642065787472756465732061726520FB
:10191000004D34323120696E636F727265637420DA
:10192000706172616D657465722075736167650AB7
:10193000004D65736820706F696E74206F75742038
:101940006F662072616E67650A004F666673657424
:1019500073204170706C696564004572723A20545E
:101960006F6F206661722100546F6F206661722074
:1019700066726F6D207265666572656E6365207054
:101980006F696E740A00454550524F4D204F4B0A07
:10199000004D383400446F6E65207072696E746952
:1019A0006E672066696C650A004D3737004D33312C
:1019B00000496E76616C696420657874727564653F
:1019C000720A004361703A004D4541545041434B07
:1019D00000434F4F4C45525F54454D504552415482
:1019E000555245004348414D4245525F54454D5084
:1019F0004552415455524500424142595354455075
:101A000050494E470041524353004D4F54494F4EA9
:101A10005F4D4F44455300544845524D414C5F5033
:101A2000524F54454354494F4E004C4F4E475F462A
:101A3000494C454E414D45004155544F5245504F3C
:101A400052545F53445F5354415455530053445FC1
:101A50005752495445005245504541540053444360
:101A60004152440050524F4D50545F535550504FC7
:101A7000525400484F53545F414354494F4E5F43C3
:101A80004F4D4D414E445300454D455247454E4301
:101A9000595F50415253455200434153455F4C49B1
:101AA0004748545F4252494748544E4553530054A7
:101AB0004F47474C455F4C494748545300534F46A6
:101AC00054574152455F504F574552004255494C7B
:101AD000445F50455243454E54004C4556454C4991
:101AE0004E475F44415441005A5F50524F424500B7
:101AF00052554E4F5554004155544F4C4556454C48
:101B0000005052494E545F4A4F420050524F475284
:101B1000455353004155544F5245504F52545F5412
:101B2000454D50004155544F5245504F52545F500F
:101B30004F5300564F4C554D45545249430045456F
:101B400050524F4D0042494E4152595F46494C4513
:101B50005F5452414E534645520053455249414C01
:101B60005F584F4E5F584F4646004649524D5741C9
:101B700052455F4E414D453A4D61726C696E20325F
:101B80002E302E392E3220284A756E2031302032E8
:101B90003032332030303A33363A31322920534F05
:101BA000555243455F434F44455F55524C3A676930
:101BB000746875622E636F6D2F4D61726C696E462D
:101BC00069726D776172652F4D61726C696E20501C
:101BD000524F544F434F4C5F56455253494F4E3A24
:101BE000312E30204D414348494E455F54595045B0
:101BF0003A526169736375626520523220455854C8
:101C000052554445525F434F554E543A3120555535
:101C100049443A63656465326132662D343161321C
:101C20002D343734382D396231322D6335356336F2
:101C3000326633363766660A0020286D6D2900202B
:101C40003B00205A0020590020204D3835312058C3
:101C500000290A0020746F20003F5A206F757420FD
:101C60006F662072616E6765202800290A00207463
:101C70006F20003F59206F7574206F662072616E6F
:101C8000676520282D00290A0020746F20003F5826
:101C9000206F7574206F662072616E676520282D35
:101CA0000020573A00436F6F6C696E672E2E2E002E
:101CB00048656174696E672E2E2E004531202553CC
:101CC0000020573A0042656420436F6F6C696E676D
:101CD0002E2E2E004265642048656174696E672E61
:101CE0002E2E0023646566696E6520444546415585
:101CF0004C545F004B6420004B6920004B70200067
:101D0000504944204175746F74756E652066696E24
:101D10006973686564212050757420746865206C4F
:101D2000617374204B702C204B6920616E64204BD2
:101D30006420636F6E7374616E74732066726F6D6E
:101D40002062656C6F7720696E746F20436F6E66DA
:101D5000696775726174696F6E2E680A0050494434
:101D6000204175746F74756E65206661696C656479
:101D7000212074696D656F75740A005049442041D3
:101D800075746F74756E65206661696C6564212079
:101D900054656D706572617475726520746F6F2023
:101DA000686967680A00504944204379636C657329
:101DB0000025532025692F256900204B643A200017
:101DC000204B693A2000204B703A200020436C6180
:101DD0007373696320504944200A002054753A20E7
:101DE00000204B753A2000206D61783A2000206D6C
:101DF000696E3A200020643A200020626961733ADB
:101E00002000255300504944204175746F74756E4D
:101E1000652073746172740A0050494420417574DE
:101E20006F74756E65206661696C65642120546508
:101E30006D706572617475726520746F6F2068696A
:101E400067680A00504944204175746F74756E6567
:101E5000206661696C656421204261642068656167
:101E60007465722069640A00504944204175746F9A
:101E700074756E65004572723A2075746638206616
:101E80006F6E74206E6F7420696E697469616C691D
:101E90007A65642E004572723A2075746638206641
:101EA0006F6E74206E6F7420696E697469616C69FD
:101EB0007A65642E004572723A2075746638206621
:101EC0006F6E74206E6F7420696E697469616C69DD
:101ED0007A65642E00000C0F00FE07022503BB018B
:101EE0007FFE08FE08FE05080806000040F0C888CE
:101EF00088987810050808060000C0F88888888847
:101F000088F80505050600012030F830200508088E
:101F10000600002070F820202020E00509090600B6
:101F2000FF2070A8A8B88888702007050507000161
:101F3000D86C366CD80509090600FFF8A88888888F
:101F40008888A8F8050A0A0600FE205050505088DC
:101F5000A8A8887003030306000340A040FFFFFF0A
:101F6000FFFFFFFFFFFFFFFFFFFFFFFFFFFFFFFF81
:101F7000FFFFFF0000000605FF01070706020080C3
:101F8000808080800080030303060105A0A0A005D7
:101F9000060606000050F85050F8500509090600E2
:101FA000FF2070A8A07028A8702005070706000071
:101FB000C8C8102040989805070706000040A0A058
:101FC00040A8906801030306020580808003090988
:101FD0000601FF2040408080804040200309090620
:101FE00001FF804040202020404080050707060078
:101FF0000020A8702070A8200505050600012020FB
:10200000F820200203030601FFC0408005010106FD
:102010000003F8020202060100C0C005070706001F
:102020000008101020404080050707060000708857
:1020300098A8C8887003070706010040C0404040C8
:1020400040E0050707060000708808102040F805EA
:102050000707060000F80810300888700507070613
:10206000000010305090F81010050707060000F827
:1020700080F008088870050707060000304080F0EF
:10208000888870050707060000F808101020202037
:1020900005070706000070888870888870050707A4
:1020A00006000070888878081060020505060100A7
:1020B000C0C000C0C00206060601FFC0C000C0408C
:1020C000800305050601012040804020050303062A
:1020D0000002F800F8030505060101804020408059
:1020E000050707060000708810202000200507075C
:1020F0000600007088B8A8B88070050707060000C1
:10210000708888F8888888050707060000F0484826
:10211000704848F0050707060000708880808088B6
:1021200070050707060000F04848484848F00507D2
:1021300007060000F88080F08080F8050707060099
:1021400000F88080F0808080050707060000708816
:102150008080988870050707060000888888F888BE
:102160008888030707060100E04040404040E00542
:1021700007070600003810101010906005070706CA
:1021800000008890A0C0A090880507070600008086
:102190008080808080F805070706000088D8A8881E
:1021A0008888880507070600008888C8A898888856
:1021B000050707060000708888888888700507076B
:1021C000060000F08888F080808005070706000080
:1021D00070888888A89068050707060000F088883E
:1021E000F0A09088050707060000708880700888B6
:1021F00070050707060000F8202020202020050792
:102200000706000088888888888870050707060008
:1022100000888888885050200507070600008888B5
:102220008888A8A850050707060000888850205015
:102230008888050707060000888850202020200590
:102240000707060000F80810204080F80309090677
:1022500001FFE080808080808080E0050707060025
:1022600000804040201010080309090601FFE0200B
:10227000202020202020E0050303060005205088B0
:102280000501010600FEF803030306010580402056
:102290000505050600007008788878050707060020
:1022A000008080F0888888F00505050600007080B1
:1022B00080887005070706000008087888888878F5
:1022C0000505050600007088F08070050707060008
:1022D00000304840E04040400507070600FE708897
:1022E00088887808700507070600008080F08888D5
:1022F00088880307070601004000C0404040E00412
:1023000009090601FE10003010101010906005073A
:102310000706000080808890E09088030707060188
:1023200000C04040404040E0050505060000D0A840
:10233000A8A8A8050505060000B0C8888888050576
:102340000506000070888888700507070600FEF003
:10235000888888F080800507070600FE78888888CE
:10236000780808050505060000B0C88080800505CE
:102370000506000078807008F005070706000020B9
:1023800020F8202020180505050600008888889878
:1023900068050505060000888888502005050506A3
:1023A00000008888A8A85005050506000088502070
:1023B00050880507070600FE888888502040800561
:1023C0000505060000F8102040F80309090601FF82
:1023D0002040404080404040200109090602FF8023
:1023E00080808080808080800309090601FF804012
:1023F0004040204040408005030306000248A8906A
:10240000FF00002100240027002A000000211042C4
:102410002063308440A550C660E770088129914A46
:10242000A16BB18CC1ADD1CEE1EFF13112100273CD
:10243000325222B5529442F772D662399318837B96
:10244000B35AA3BDD39CC3FFF3DEE362244334201D
:10245000040114E664C774A44485546AA54BB528E6
:10246000850995EEE5CFF5ACC58DD55336722611AD
:10247000163006D776F6669556B4465BB77AA71936
:10248000973887DFF7FEE79DD7BCC7C448E5588675
:1024900068A7784008611802282338CCC9EDD98E86
:1024A000E9AFF9488969990AA92BB9F55AD44AB70D
:1024B0007A966A711A500A333A122AFDDBDCCBBFD6
:1024C000FB9EEB799B588B3BBB1AABA66C877CE4DD
:1024D0004CC55C222C033C600C411CAEED8FFDEC26
:1024E000CDCDDD2AAD0BBD688D499D977EB66ED5ED
:1024F0005EF44E133E322E511E700E9FFFBEEFDD76
:10250000DFFCCF1BBF3AAF599F788F8891A981CA52
:10251000B1EBA10CD12DC14EF16FE18010A100C231
:1025200030E3200450254046706760B9839893FBE0
:10253000A3DAB33DC31CD37FE35EF3B1029012F381
:1025400022D2323542145277625672EAB5CBA5A830
:102550009589856EF54FE52CD50DC5E234C324A0D1
:102560001481046674476424540544DBA7FAB799C0
:1025700087B8975FE77EF71DC73CD7D326F2369121
:1025800006B01657667676154634564CD96DC90E88
:10259000F92FE9C899E9898AB9ABA9445865480671
:1025A000782768C018E1088238A3287DCB5CDB3F20
:1025B000EB1EFBF98BD89BBBAB9ABB754A545A37C1
:1025C0006A167AF10AD01AB32A923A2EFD0FED6CF0
:1025D000DD4DCDAABD8BADE89DC98D267C076C6411
:1025E0005C454CA23C832CE01CC10C1FEF3EFF5D00
:1025F000CF7CDF9BAFBABFD98FF89F176E367E5561
:102600004E745E932EB23ED10EF01E43616E6E6F1D
:1026100074206F70656E2073756264697220005358
:10262000442063617264206F6B0A006F70656E52A4
:102630006F6F74206661696C65640A00766F6C75F3
:102640006D652E696E6974206661696C65640A0047
:102650004E6F20534420636172640A000A4D323485
:10266000004D3233202573002E0A006F70656E20F6
:102670006661696C65642C2046696C653A20004689
:10268000696C652073656C65637465640A0020532A
:10269000697A653A200046696C65206F70656E65E1
:1026A000643A2000454E4420535542524F555449F8
:1026B0004E450A002220706F7300222070617265FF
:1026C0006E743A2200535542524F5554494E45209C
:1026D00043414C4C207461726765743A2200537513
:1026E0006263616C6C204F766572666C6F77004533
:1026F00078636565646564206D6178205355425246
:102700004F5554494E452064657074683A006672AE
:1027100065736800646F696E67002066696C653A6E
:1027200020004E6F7720002F6175746F25632E6730
:102730000000002200250028002B000202020202F5
:102740000202020404040404040404030303030354
:102750000303030101010101010101010204081049
:10276000204080010204081020408001020408106B
:102770002040808040201008040201000000010277
:1027800000090A0000000004030807000000000020
:1027900000000000000000000000006D61726C6924
:1027A0006E66772E6F726700322E302E392E320011
:1027B0001FFFFFFFFFFFFF600000000001FF400060
:1027C00000000000FF8000000000007F83CF0000B9
:1027D0000C303F87FF80000C301F867980000C0092
:1027E0000F8C30C7838C30E78C30CFC7CC31F38C63
:1027F00030DCECEC33B98C30D86C6C33198C30D0C5
:102800006C0C33198C30D86C0C33198C30DC6C0E9A
:102810003B198C30CF7C079F198C30C77C038F19F4
:1028200040000000000002600000000000061FFFE2
:10283000FFFFFFFFF870012C0190012701B001227A
:1028400001C0011D01F00118011002130130020E38
:10285000016002090190020401C002FF000003FAB6
:10286000004003F5008003F000D003EB002004E6F5
:10287000007004E100E004DC004005D700C005D290
:10288000004006CD00D006C8008007C3003008BE57
:1028900000F008B900C009B400B00AAF00B00BAA3C
:1028A00000D00CA500000EA000500F9B00C0109699
:1028B000005012910000148C00C0158700B01782E0
:1028C00000B0197D00D01B7800001E730040206E00
:1028D0000090226900F024640040275F0090295A8C
:1028E00000E02B5500102E500020304B00103246D7
:1028F00000E033410090353C00103737007038322B
:1029000000A0392D00B03A2800A03B2300603C1EF7
:1029100000103D1900903D1400103E0F00703E0A5B
:1029200000C03E0500003F0000403FFBFF803FF637
:10293000FFC03FF1FF2020506C616E6E65724275E2
:102940006666657242797465733A20002046726546
:1029500065204D656D6F72793A200020436F6D7070
:10296000696C65643A204A756E203130203230320D
:10297000330A00204C61737420557064617465647F
:102980003A20323032312D30392D3033207C204105
:102990007574686F723A20284456205232290A0012
:1029A0004D61726C696E20322E302E392E320A0043
:1029B00020536F6674776172652052657365740A7F
:1029C00000205761746368646F6720526573657493
:1029D0000A002042726F776E206F75742052657303
:1029E00065740A002045787465726E616C205265CA
:1029F0007365740A00506F77657255700A007374BE
:102A00006172740A004732385859004D3130303104
:102A1000006F6B006572726F722077726974696EF5
:102A20006720746F2066696C650A00446F6E6520CC
:102A3000736176696E672066696C652E0A004D3297
:102A40003900456E6473746F7073002553202563DD
:102A500020256320256320256300205A3A00205951
:102A60003A0020583A00656E6473746F7073206882
:102A700069743A2000004D6F76652025736D6D00F6
:102A80004D6F766520302E316D6D004D6F7665206F
:102A9000316D6D004D6F76652031306D6D004D6F7D
:102AA00076652041786973004D6F766520457874AE
:102AB0007275646572004D6F7665205A004D6F76B1
:102AC000652059004D6F76652058005072696E740C
:102AD0002066726F6D204D6564696100486F6D6995
:102AE0006E67204661696C656400FFFFFF50726F7E
:102AF00062696E67204661696C65640A0050726F96
:102B000062696E67204661696C656400205A3A20EC
:102B10000020593A200042656420583A200073682A
:102B20006F7700627574746F6E0070726F6D707481
:102B30005F00656E6400626567696E00526169736B
:102B4000637562652052322052656164792E0050AF
:102B500072696E74696E672E2E2E005072696E74E3
:102B60002050617573656400220A00556E6B6E6FAC
:102B7000776E20636F6D6D616E643A202200DB0F0B
:102B8000C93F45BCDA3F8FB30240FCF02740569462
:102B90006140FE4B9B4084A5D840E0231841346A35
:102BA0005641E859974164DBD5416E271742B4B7C7
:102BB0005542CE1A9742C8AED542B5885A43D4067C
:102BC00084BFA65FA7BF7443E0BF10B11AC01C2C1E
:102BD00058C0E8F697C0B849D6C04E4E17C124D3A6
:102BE00055C1802497C1A0B5D5C1121A17C244AEF1
:102BF00055C2781797C26CACD5C267885AC3207487
:102C00006F6F206C6F6E6720657874727573696F73
:102C10006E2070726576656E7465640A0020636F5D
:102C20006C6420657874727573696F6E207072655C
:102C300076656E7465640A006F6B0A005265736591
:102C40006E643A20006E6F74696669636174696FBF
:102C50006E20007C3C3E5E2B3D3F2F5B5D3B2C2A73
:102C6000225C0020453A00205A3A0020593A005888
:102C70003A004572726F722077726974696E6720CC
:102C8000746F20454550524F4D210A0040E18EE6B9
:102C900011241FBECFEFD0E4DEBFCDBF12E0A0E015
:102CA000B1E0E4E9FBEE01E00BBF02C007900D923A
:102CB000AC36B107D9F723E1ACE6B2E001C01D9212
:102CC000AC3AB207E1F716E1C7E4D6E104C02197B8
:102CD000FE010E941CF5C634D107C9F70E94F6E137
:102CE0000C94BDF50C9400000F931F93CF93DF93CA
:102CF000CDB7DEB760970FB6F894DEBF0FBECDBF7D
:102D00008C01DC01ED91FC910280F381E02DBE018C
:102D10006F5F7F4F0995882309F464C08981807CA7
:102D2000C9F56F81637070E0762F6627770F770F94
:102D30008885B4E08B9FC0011124682B792B89858D
:102D40008295869586958370682B6F5F7F4F90E0A4
:102D500080E02A852370220F3B8537FB332730F92B
:102D6000232B3E813F70230F3327331F2750310918
:102D700004C0660F771F881F991F2A95D2F76096A7
:102D80000FB6F894DEBF0FBECDBFDF91CF911F917C
:102D90000F910895803419F568856695669570E001
:102DA00090E080E0CB01772766272A85622B098592
:102DB00010E0102F0027012E000C220B330B602B8C
:102DC000712B822B932B6F5F7F4F8F4F9F4F4AE06A
:102DD000660F771F881F991F4A95D1F7D0CF8BE0D8
:102DE000F801848360E070E0CB01C9CF0895FC0155
:102DF00082810895FC0190E1A6E0B5E001900D927A
:102E00009A95E1F70895CF92DF92EF92FF92809129
:102E10009D02882309F457C0C0909902D0909A026D
:102E2000E0909B02F0909C0220E030E0A901C701F5
:102E3000B6010E9430EB882309F445C020E030E061
:102E400040E05FE3C701B6010E9496EB9B01AC0135
:102E50000E9496EB2BED3FE049E450E40E9496EB94
:102E60009B01AC0160E070E080E89FE30E94AFF25C
:102E70006B017C01C0929402D0929502E09296027E
:102E8000F09297026091240170912501072E000CA9
:102E9000880B990B0E9437EB2AE037ED43E25CE3A5
:102EA0000E9496EBA70196010E9496EB6093710138
:102EB000709372018093730190937401FF90EF906F
:102EC000DF90CF900895C12CD12C80E8E82E8FE3BD
:102ED000F82ED0CF0F931F93E62FDC01FC910F2F1C
:102EE00010E030E020E0062E04C0369527951795B7
:102EF00007950A94D2F700FF1CC000919B0410E0D4
:102F000030E020E004C036952795179507956A951F
:102F1000D2F700FF0EC041E050E060E070E004C076
:102F2000440F551F661F771FEA95D2F740954F2330
:102F30004C931F910F9108958F929F92AF92BF92E1
:102F4000CF92DF92EF92FF92FC01C080D180E280AD
:102F5000F38020E030E040E251E4C701B6010E9476
:102F600096EB20E030E040E251E40E9496EB4B010A
:102F70005C0120E030E0A901C701B6010E9430EBFE
:102F800020E030E040EA50E487FF04C020E030E079
:102F900040EA50ECC501B4010E94B5F120E030E0F8
:102FA00040E251E40E94AFF20E9421F39B018BE2C8
:102FB00037FF05C022273327261B370B8DE280936E
:102FC000B206C90168EE73E00E94E9F4CB01EAE0C1
:102FD000F0E0BF010E94E9F4805D8093B306C9016F
:102FE00064E670E00E94E9F4CB01BF010E94E9F4BD
:102FF000805D8093B406C901BF010E94E9F4282FC7
:10300000CB01BF010E94E9F4805D8093B5068EE29A
:103010008093B606205D2093B70682EB96E0FF9082
:10302000EF90DF90CF90BF90AF909F908F900895DA
:103030009C0197FF26C0EE27FF27E81BF90B2D39CF
:103040008FEF38070CF05DC08DE28093B406CF019E
:1030500064E670E00E94E9F4CB012AE030E0B901B7
:103060000E94E9F4805D8093B506CF01B9010E940A
:10307000E9F4CB01B9010E94E9F4805D8093B606C2
:103080002AC0283E83E03807B4F1C90168EE73E036
:103090000E94E9F4CB01EAE0F0E0BF010E94E9F40C
:1030A000805D8093B406C90164E670E00E94E9F493
:1030B000CB01BF010E94E9F4805D8093B506C90190
:1030C000BF010E94E9F4CB01BF010E94E9F4805DD9
:1030D0008093B606F901CF016AE070E00E94E9F43E
:1030E000805D8093B70684EB96E008958DE237FD0E
:1030F000C5CF80E2C3CFF90180E2243631050CF060
:10310000A4CF80E28093B4068093B506EA30F1053F
:103110006CF38DE237FF80E28093B506CF016AE061
:1031200070E00E94E9F4605D6093B606D4CF9C0124
:1031300097FD2DC080E2243631055CF0C90164E6BC
:1031400070E00E94E9F4CB016AE070E00E94E9F4CB
:10315000805D8093B50680E22A3031055CF0EAE0BC
:10316000F0E0C901BF010E94E9F4CB01BF010E9458
:10317000E9F4805D8093B606C9016AE070E00E94C0
:10318000E9F4805D8093B70685EB96E0089531956C
:10319000219531098DE2DDCF6091240170912501E7
:1031A000072E000C880B990B0E9437EB2AE037EDB5
:1031B00043E25CE30E9496EB2091940230919502E9
:1031C00040919602509197020E9496EB6093710194
:1031D00070937201809373019093740108958091AC
:1031E000C4108823C1F081508093C410E2E1FFE055
:1031F000882351F08150990B2BE1289FF001299FE2
:10320000F00D1124EA54F04F8BE1A7EFBEE00190DE
:103210000D928A95E1F72091C410211105C080918B
:10322000CF1080648093CF1081E090E0A0E0B0E008
:10323000211103C080E090E0DC018093BA069093F6
:10324000BB06A093BC06B093BD0610929E0681E01B
:103250008093B00683E080936C0108958F929F92D3
:10326000AF92BF92CF92DF92EF92FF92CF936B011A
:103270007C0120E030E0A9010E9430EB87FFA3C071
:103280006DEB77E386E095EBA70196010E94B5F11F
:103290006B017C0120E030E040E251E40E9496EBBB
:1032A00020E030E048EC52E40E9496EB4B015C01D8
:1032B00020E030E040E251ECC701B6010E9430EB63
:1032C000181654F420E030E048EC52E4C701B6018F
:1032D0000E9415F487FD8BC020E030E0A901C701F2
:1032E000B6010E9430EB87FF73C060E070E080EAB7
:1032F00090ECA50194010E94B5F120E030E040E29D
:1033000051E40E94AFF20E9421F36B017C01F7FCB3
:1033100064C020E137E240E050E00E94FDF4CA01C1
:10332000B9012AE030E040E050E00E94FDF4605D29
:103330006093B206C701B60128EE33E040E050E0EA
:103340000E94FDF49AE0892E912CA12CB12CCA0187
:10335000B901A50194010E94FDF4605D6093B3067C
:10336000C701B60124E630E040E050E00E94FDF4E1
:10337000CA01B901A50194010E94FDF4605D60934A
:10338000B4068EE28093B506C701B601A50194018B
:103390000E94FDF4C62FCA01B901A50194010E9443
:1033A000FDF4605D6093B606C05DC093B70682EB26
:1033B00096E0CF91FF90EF90DF90CF90BF90AF90CD
:1033C0009F908F9008956DEB77E386E095E35CCF57
:1033D00060E070E080EA90E48CCFF094E094D094C8
:1033E000C094C11CD11CE11CF11C6DE2A1CF20E0F6
:1033F00030E0A901C701B6010E9430EB87FF6AC027
:1034000060E070E080EA90ECA50194010E94B5F1C3
:1034100020E030E040E251E40E94AFF20E9421F34C
:103420004B015C0120E030E0A901C701B6010E9418
:1034300015F487FD0BC020E030E040E251E4C70105
:10344000B6010E9430EB60E287FD13C0B7FC47C0B5
:10345000C501B40128EE33E040E050E00E94FDF4E5
:10346000CA01B9012AE030E040E050E00E94FDF4DA
:10347000605D6093B306C501B40124E630E040E02E
:1034800050E00E94FDF48AE0C82ED12CE12CF12CF2
:10349000CA01B901A70196010E94FDF4605D609325
:1034A000B4068EE28093B506C501B401A70196016A
:1034B0000E94FDF4C62FCA01B901A70196010E941E
:1034C000FDF4605D6093B606C05DC093B70683EB04
:1034D00096E06FCF60E070E080EA90E495CFB09422
:1034E000A09490948094811C911CA11CB11C6DE24D
:1034F000C0CF8F929F92AF92BF92CF92DF92EF9206
:10350000FF92CF936B017C0120E030E0A9010E9483
:1035100030EB87FDAAC06DEB77E386E095E3A7016A
:1035200096010E94B5F16B017C0120E030E0A90119
:103530000E9430EB87FF9EC0C701B601905820E083
:1035400030E040E251E40E9496EB20E030E040E2BF
:1035500051E40E9496EB20E030E040EA50E40E9403
:10356000B5F120E030E040E251E40E94AFF20E9469
:1035700021F36B017C0180E28093B10660E280E17F
:10358000C81687E2D806E104F1048CF0C701B60141
:1035900020E137E240E050E00E94FDF4CA01B901A9
:1035A0002AE030E040E050E00E94FDF4605D60936E
:1035B000B20660E288EEC81683E0D806E104F104A2
:1035C0008CF0C701B60128EE33E040E050E00E94E5
:1035D000FDF4CA01B9012AE030E040E050E00E9469
:1035E000FDF4605D6093B30660E284E6C816D10422
:1035F000E104F1048CF0C701B60124E630E040E0BC
:1036000050E00E94FDF4CA01B9012AE030E040E038
:1036100050E00E94FDF4605D6093B4068AE0882E5D
:10362000912CA12CB12CC701B601A50194010E94D7
:10363000FDF4C62FCA01B901A50194010E94FDF451
:10364000605D6093B5068EE28093B606C05DC09360
:10365000B70681EB96E0CF91FF90EF90DF90CF908F
:10366000BF90AF909F908F9008956DEB77E386E0C9
:1036700095EB55CF20E030E040E251E4C701B601C0
:1036800062CFCF93DF93EC01CB01BA010E9437EBFD
:1036900020E030E040E251E40E94AFF26883798399
:1036A0008A839B83DF91CF9108950E9437EB20E0BE
:1036B00030E040E251E40E94AFF20C94791ACF93CB
:1036C000DF93EC01CB01BA010E9437EB20E030E040
:1036D00048EC52E40E94AFF2688379838A839B832B
:1036E000DF91CF9108950E9437EB20E030E048EC65
:1036F00052E40E94AFF20C942E19CF93DF93EC01A9
:10370000CB01BA010E9437EB0E9421F379836883D1
:10371000DF91CF9108950E9437EB0E9421F3CB01F6
:103720000C949718CF93DF93EC01CB01BA010E9460
:1037300037EB20E030E04AE754E40E94AFF26883C0
:1037400079838A839B83DF91CF9108950F931F9391
:10375000522F2091760F3091770F2817390721F1DA
:103760009093770F8093760F8B0130E020E00093E9
:10377000BA061093BB062093BC063093BD06409357
:103780009E06509398068758924621F41092BF06E1
:103790001092750482E080936C0181E08093B00602
:1037A000109278041092B9061F910F91089520E0AD
:1037B00040E070E060E087EA96E40E94A61B81E0AA
:1037C0008093BF061092730210927202089520E057
:1037D00040E070E060E08AEE9DE10C94A61B21E0E1
:1037E0002093BF06FC0180819181A281B3818093E7
:1037F0001A0190931B01A0931C01B0931D0120E0BE
:1038000040E070E060E080919F069091A0060C94EB
:10381000A61BCF93DF9300D000D0CDB7DEB78DECE1
:103820009CECACECBCE389839A83AB83BC83CE0174
:1038300001960E94EF1B0F900F900F900F90DF9159
:10384000CF910895CF93DF9300D000D0CDB7DEB7EE
:103850008DEC9CECACECBDE389839A83AB83BC8399
:10386000CE0101960E94EF1B0F900F900F900F90CA
:10387000DF91CF910895CF93DF9300D000D0CDB7E3
:10388000DEB780E090E0A0E8BFE389839A83AB8352
:10389000BC83CE0101960E94EF1B0F900F900F90FA
:1038A0000F90DF91CF910895CF93DF9300D000D098
:1038B000CDB7DEB780E090E0A0E2B1E489839A83DF
:1038C000AB83BC83CE0101960E94EF1B0F900F903B
:1038D0000F900F90DF91CF9108958091500F9091AC
:1038E000510F891B8F7089F48091D906813069F05E
:1038F0009091CF1092FB882780F992FF07C097FB29
:10390000882780F991E08927089581E00895FC01D6
:10391000A081B1811C92A281B3818C918F5F8C9325
:103920000280F381E02D90818CE0989F800D11241E
:10393000E8E7FFE013AE84AF0895CF93DF93C09123
:10394000EA02D091EB02209729F16091E602709192
:10395000E7028091E8029091E9020E9421F36E5FF4
:103960007F4F24976C177D07ACF4709332056093FA
:1039700031050E9420CE605E714B8F4F9F4F609348
:103980003305709334058093350590933605DF91A8
:10399000CF91089510923305109234051092350599
:1039A00010923605F4CF0C949D1C0F931F930E9428
:1039B00020CE0091330410913404209135043091CD
:1039C0003604601B710B820B930B97FD0CC089B101
:1039D00083FB882780F991E089274A9B8260309B8E
:1039E000846080933204809132048170909132041B
:1039F00091FD826090913104981749F0813009F16E
:103A000048F0823079F0833091F0809331041F9137
:103A10000F910895913079F09230B9F79091300478
:103A200091500CC0992339F09330C1F3EECF91300F
:103A3000A9F3923051F7909130049F5F9093300436
:103A4000E4CF992359F3933001F7F5CFCF92DF926A
:103A5000EF92FF92CF93C82F0E9420CE6B017C0182
:103A600024EA30E74DE75FE360911A0170911B0192
:103A700080911C0190911D010E9430EB87FD18C0C0
:103A80008AEF90E0A0E0B0E08C0D9D1DAE1DBF1D43
:103A90008093240490932504A0932604B0932704D4
:103AA000C0931001CF91FF90EF90DF90CF900895D9
:103AB00080E090E0DC01E8CFCF93C82FCB010E94DB
:103AC000F97C8FE497E00E94F97C80E497E0CC23B6
:103AD00011F085E497E00E94F97C8AE0CF910C9484
:103AE000F27C4091D20221E042276CE070E00C941D
:103AF000D6C54091D20221E0422764E070E00C94E8
:103B0000D6C54091D20221E0422761E070E00C94DA
:103B1000D6C54091D20221E0422761E070E00C94CA
:103B2000D6C54091D20221E0422768E070E00C94B3
:103B3000D6C54091D20221E042276CE070E00C949F
:103B4000D6C541E061E070E00C94D6C54091D20248
:103B500021E042270C94D6C56CE070E00C94B8CDFF
:103B600064E070E00C94B8CD61E070E00C94B8CDE6
:103B700061E070E00C94B8CD6CE070E00C94B8CDCE
:103B800020E030E0A901BC0188EB9EE00C94C7C6A0
:103B9000CF93DF93CDB7DEB720E24F8158856E819A
:103BA0008D810E9419CBDF91CF9108956FEF8091A5
:103BB0007C040C94CAE068E976E482E00C94A8DE08
:103BC0006DE976E481E00C94A8DE62EA76E480E0B8
:103BD0000C94A8DE64EC7BE483E00C94A8DEEF9206
:103BE000FF920F931F938FE7E82E86E0F82E10E0E8
:103BF00000E021E836E047EE5BE161E976E086E946
:103C000096E00E948BD01F910F91FF90EF90089546
:103C1000EF92FF920F931F9386E7E82E85E0F82E30
:103C200010E000E028E136E04DEA5DE568E775E088
:103C30008DE795E00E948BD01F910F91FF90EF9040
:103C40000895CF92DF92EF92FF920F931F93CF933D
:103C5000DF93CDB7DEB7CDB6DEB68091710E6CECDA
:103C600076E0882311F061E77EE0FB0101900020FF
:103C7000E9F7CF01861B970B01962DB73EB7281B9E
:103C8000390B0FB6F8943EBF0FBE2DBF0DB71EB750
:103C90000F5F1F4F80E2EDB7FEB78183C801019629
:103CA0000E948EF58BE3E82E86E0F82E2DE336E0B9
:103CB0004DE353E469E476E080E596E00E948BD022
:103CC0000FB6F894DEBE0FBECDBEDF91CF911F912F
:103CD0000F91FF90EF90DF90CF90089580916C014D
:103CE000882351F0609176047091770430E020E0F1
:103CF00041E081E00C94DC740895CF92DF92EF9262
:103D0000FF92CF93DF9300D000D0CDB7DEB70E94F3
:103D100037EB20E030E04AE754E40E94AFF26B0159
:103D20007C0120E030E0A9010E9430EB2DEB37E36D
:103D300046E055E387FF04C02DEB37E346E055EB43
:103D4000C701B6010E94B5F169837A838B839C8396
:103D5000CE0101960E94D1CB0F900F900F900F9043
:103D6000DF91CF91FF90EF90DF90CF9008957F92F9
:103D70008F929F92AF92BF92CF92DF92EF92FF927B
:103D80000F931F93CF93DF9300D000D000D0CDB717
:103D9000DEB78C01F62EE22ED32EC42E752E0E9495
:103DA000C3D80E9420CE4B015C0128E5820E22E0A0
:103DB000921EA11CB11C0E943B878F3F41F00E94C4
:103DC00020CE681979098A099B0997FDF4CF1E82D4
:103DD0001D828F2D806489837A82CB82DC82ED8282
:103DE000DE0111969E012A5F3F4FCD0150E0FC019C
:103DF0004191CF01E52FF0E0EE0FFF1FE427E35ADA
:103E0000FE4E54918217930791F7E52FEE0FE16074
:103E1000EE83CD0106962D912EBD0DB407FEFDCF8C
:103E2000A817B907C1F7FCE0FF1202C00E943B8748
:103E3000F12C0E943B87F801868387FF05C0FFEFC6
:103E4000FF1611F0F394F5CF26960FB6F894DEBF67
:103E50000FBECDBFDF91CF911F910F91FF90EF90DB
:103E6000DF90CF90BF90AF909F908F907F900895FC
:103E70000F931F93CF93DF93EC018B0120E030E091
:103E8000A90169E00E94B71E81110AC040E150E01B
:103E9000B801CE01DF91CF911F910F910C9417D9EA
:103EA00080E18C83CE010E94CFD880E0DF91CF915A
:103EB0001F910F910895682F70E090E080E00C94BE
:103EC000BDC48F929F92AF92BF92CF92DF92EF923A
:103ED000FF92CF936B017C01B42E20E030E0A9016A
:103EE0000E9430EB87FF07C08DE20E94F27CF7FA58
:103EF000F094F7F8F094C0E060E070E080E09FE3B9
:103F0000CB1541F02DEC3CEC4CEC5DE30E9496EBC4
:103F1000CF5FF6CFA70196010E94B5F16B017C013E
:103F20000E9428F34B015C010E94BDC4CC2371F1B7
:103F3000C501B4010E9435EB9B01AC01C701B6017C
:103F40000E94B4F16B017C018EE20E94F27CC150B0
:103F5000E8F020E030E040E251E4C701B6010E9401
:103F600096EB6B017C010E9428F34B015C010E94DF
:103F7000BDC4C501B4010E9435EB9B01AC01C70172
:103F8000B6010E94B4F16B017C01E1CFCF91FF90AB
:103F9000EF90DF90CF90BF90AF909F908F9008955B
:103FA000EF92FF920F931F93CF937B018A01C2E49C
:103FB0008F3F09F0C4E580E20E94F27C8C2F0E94C2
:103FC000F27C8AE30E94F27CF70160817181828138
:103FD000938142E00E94611F81E591E10E94F97C9A
:103FE000F801608171818281938142E00E94611FAA
:103FF00062E070E080E090E0CF911F910F91FF9020
:10400000EF900C9485CD1F93CF93DF93CDB7DEB7A0
:1040100028970FB6F894DEBF0FBECDBF182F609162
:10402000EA027091EB02072E000C880B990B0E949C
:1040300037EB6D837E838F8398878091E602909122
:10404000E702A091E802B091E90289839A83AB83E9
:10405000BC83AE014B5F5F4FBE016F5F7F4F80E05F
:104060000E94D01F6091910670919206072E000C5D
:10407000880B990B0E9437EB6D837E838F83988723
:1040800080918D0690918E06A0918F06B09190063A
:1040900089839A83AB83BC83AE014B5F5F4FBE01C4
:1040A0006F5F7F4F8FEF0E94D01F609193061F3F7D
:1040B00039F087E11802F0011124EE51FD4F6285BD
:1040C00070E089E591E10E940F856091930670E0B0
:1040D00084E591E10E940F8528960FB6F894DEBF23
:1040E0000FBECDBFDF91CF911F9108950F930FB7F2
:1040F0000F9300916E000B7F00936E0078940F93E6
:104100000BB70F930CB70F921F922F933F934F93C0
:104110005F936F937F938F939F93AF93BF93EF932F
:10412000FF9311240E945B2BFF91EF91BF91AF9100
:104130009F918F917F916F915F914F913F912F91BF
:104140001F900F900CBF0F910BBF0F910460F8945C
:1041500000936E000F910FBF0F911895CF93DF93CF
:104160001092DE02E2EEF2E0118610861092330524
:1041700010923405109235051092360512865D981E
:10418000C9E8D6E0198618860E94E9701A865C98FC
:10419000DF91CF9108958F929F92AF92BF92CF926D
:1041A000DF92EF92FF920F931F93CF93DF93B0E4D0
:1041B000A0E06A2F70E0AB014B0F511D559547955C
:1041C000411119C0E7E3F8E265917491072E000CE4
:1041D000880B990B0E9437EBDF91CF911F910F91C4
:1041E000FF90EF90DF90CF90BF90AF909F908F9017
:1041F0000895B42FE0CFA41711F0B41303C0E3E384
:10420000F9E2E2CF9A0121503109220F331F220F28
:10421000331FF901EB5CF74DE590F490F901E75C91
:10422000F74DC591D4918E159F051CF3A42FC81787
:10423000D9070CF4BECFF901E95CF74D0591149153
:10424000F901E55CF74DC590D490BC016E197F096A
:10425000072E000C880B990B0E9437EB4B015C0179
:10426000B601601B710B072E000C880B990B0E9486
:1042700037EB9B01AC01C501B4010E9496EB4B01E9
:104280005C01BE016E197F09072E000C880B990B8B
:104290000E9437EB9B01AC01C501B4010E94AFF253
:1042A0006B017C01B801110F880B990B0E9437EB51
:1042B0009B01AC01C701B6010E94B5F18DCFEF9211
:1042C000FF920F931F93CF93DF93C82F7B018A0137
:1042D00080918806833090F00E943284C7010E944A
:1042E000F97C87EB90E10E94F97CCF3F89F583EB65
:1042F00090E10E94F97C8AE00E94F27C0E94AE204C
:10430000A8958091160581113FC081E08093160524
:1043100082E0809388060E94AE20D5E1D150149AA5
:1043200049F169E170E080E090E00E9485CDA895B8
:10433000149868E270E080E090E00E9485CDA89536
:1043400068E270E080E090E00E9485CDA895E6CF1D
:10435000C7FDD1CF81EB90E10E94F97C6C2F0C2E30
:10436000000C770B880B990B0E9427C58AE00E94EE
:10437000F27CC1CF6AEA70E1CF3F11F06EEA70E1E2
:1043800040E0C8010E946686DF91CF911F910F9196
:10439000FF90EF9008954F925F926F927F928F926D
:1043A0009F92AF92BF92CF92DF92EF92FF920F93C4
:1043B0001F93CF93DF93EC016B014A01B22EFA01F8
:1043C0004080518062807380A30192016D817E8163
:1043D0008F8198850E9430EB8823A1F04D825E8208
:1043E0006F827886AA24A39420E030E0A901F4012A
:1043F00060817181828193810E9415F418160CF0FE
:10440000A12CAC828C818230A1F0833009F45AC097
:104410008130C9F52D813E814F815885F60160813B
:104420007181828193810E9430EB87FD2CC082E0F4
:104430008C83B701FF0C880B990B0E9437EB9B0113
:10444000AC016D817E818F8198850E94B4F19B01C2
:10445000AC01F60160817181828193810E9415F423
:1044600087FD22C00E9420CE6B017C019801A8EE3E
:10447000B3E00E94A5F1C60ED71EE81EF91EC88241
:10448000D982EA82FB82DF91CF911F910F91FF9039
:10449000EF90DF90CF90BF90AF909F908F907F90E4
:1044A0006F905F904F9008950E9420CE08811981EF
:1044B0002A813B81601B710B820B930B97FDE3CF2D
:1044C00083E08C8341E351E161E471E18B2DDF9165
:1044D000CF911F910F91FF90EF90DF90CF90BF9001
:1044E000AF909F908F907F906F905F904F900C94C3
:1044F0005F21CF93DF93A8958091E4029091E5022C
:104500000E9442C56093E6027093E7028093E8023E
:104510009093E90280918B0690918C060E94CB20AB
:1045200060938D0670938E0680938F06909390060D
:10453000C091E402D091E5028091650190916601FD
:10454000C817D9073CF443EF50E160E071E180E027
:104550000E945F218091EA029091EB0218161906E1
:1045600074F480916301909164018C179D073CF471
:1045700042E151E16FE171E180E00E945F21209111
:104580008B0630918C0680917406909175062817E1
:1045900039073CF443EF50E160E071E18FEF0E9496
:1045A0005F21809191069091920618161906A4F445
:1045B00020918B0630918C0680916101909162016F
:1045C000821793074CF442E151E16FE171E18FEF03
:1045D000DF91CF910C945F21DF91CF910895CF931C
:1045E000DF93C9EAD0E120E030E048E452E4609192
:1045F000E6027091E7028091E8029091E9020E9440
:1046000015F487FF11C080E0FE01C49190E0B0E096
:10461000A0E004C0B695A79597958795CA95D2F75F
:1046200080FD10C02C980FC0FE01249181E090E025
:10463000A0E0B0E004C0880F991FAA1FBB1F2A95F5
:10464000D2F7E2CF2C9ADF91CF9108952F923F922B
:104650004F925F926F927F928F929F92AF92BF9292
:10466000CF92DF92EF92FF920F931F93CF93DF933E
:10467000CDB7DEB763970FB6F894DEBF0FBECDBFE0
:104680008091880681111AC0A89563960FB6F89498
:10469000DEBF0FBECDBFDF91CF911F910F91FF9075
:1046A000EF90DF90CF90BF90AF909F908F907F90D2
:1046B0006F905F904F903F902F90089580913005BC
:1046C0008111E3CF81E0809330058091DF02811179
:1046D00003C010923005D9CF0E9479221092DF02D8
:1046E0000E9420CE4B015C016091690170916A01CA
:1046F000072E000C880B990B0E9437EB9B01AC0135
:104700006091E6027091E7028091E8029091E902DF
:104710000E9415F418160CF47EC26091EA027091A2
:10472000EB02072E000C880B990B0E9437EB698374
:104730007A838B839C8324E0E22EF12C08E210E044
:1047400020E0AE014F5F5F4F66EE72E08DE29FE0CA
:104750000E94CB214090E6025090E7026090E80270
:104760007090E9026091670170916801072E000C5A
:10477000880B990B0E9437EB9B01AC01C301B2017E
:104780000E9415F418160CF01DC16091690170911A
:104790006A01072E000C880B990B0E9437EB9B01D6
:1047A000AC01C301B2010E9430EB87FF0BC16091E5
:1047B000EA027091EB026115710509F44CC2072EF3
:1047C000000C880B990B0E9437EBA30192010E9409
:1047D000B4F16B017C0120E030E040E251EC0E943A
:1047E00030EB87FD38C220E030E040E251E4C70101
:1047F000B6010E9415F418160CF45AC280912B05CC
:1048000081115AC22091230530912405409125053C
:10481000509126052D833E834F835887809127052D
:1048200090912805A0912905B0912A0589879A873A
:10483000AB87BC87A30192016091170570911805A1
:104840008091190590911A050E94B4F12091F5020A
:104850003091F6024091F7025091F8020E9496EBD7
:104860002D813E814F8158850E94B4F120ED3CECB2
:104870004CE45DE30E9496EB2D813E814F8158858B
:104880000E94B5F16D837E838F83988760932305A3
:104890007093240580932505909326052091F102BD
:1048A0003091F2024091F3025091F4022D873E873D
:1048B0004F87588B29853A854B855C85C701B601A2
:1048C0000E94B5F11B018C0120E030E0A9010E949B
:1048D00030EB87FDFCC12D853E854F85588960E012
:1048E00070E08FE793E40E94AFF26987798B8A8B3F
:1048F0009B8B9101A8010E9430EB87FF04C02984A3
:1049000039880A891B89C101D801809327059093B2
:104910002805A0932905B0932A052091ED02309136
:10492000EE024091EF025091F002C701B6010E94E1
:1049300096EB6B017C01C0921B05D0921C05E092A6
:104940001D05F0921E059101A8016D857E858F855C
:1049500098890E9496EB9B01AC0120931F05309330
:1049600020054093210550932205C701B6010E94FE
:10497000B5F12D813E814F8158850E94B5F120E02F
:1049800030E0A9010E94B5F16B017C0120E030E02C
:10499000A9010E9430EB87FD61C120E030E04FE7C4
:1049A00053E4C701B6010E9415F418160CF028C193
:1049B0006FE74092170550921805609219057092A2
:1049C0001A0501C060E06093EC028091330590917C
:1049D0003405A0913505B09136050097A105B105C4
:1049E00069F1A5019401281B390B4A0B5B0BDA0115
:1049F000C901B7FD23C0C301B2010E9421F3209178
:104A0000310530913205621773070CF41CC12091F7
:104A1000EA023091EB022115310541F06E5F7F4FC4
:104A200024503109621773070CF41CC1109233052E
:104A30001092340510923505109236058091DA02F5
:104A40009091DB02A091DC02B091DD02A5019401FE
:104A5000281B390B4A0B5B0BDA01C901B7FFBFC03A
:104A600020E030E046E153E460918D0670918E06BF
:104A700080918F06909190060E9415F418160CF400
:104A8000D2C08091D6029091D702A091D802B09165
:104A9000D9020097A105B10599F1A5019401281B40
:104AA000390B4A0B5B0BDA01C901B7FD29C06091D4
:104AB0008D0670918E0680918F06909190060E94CF
:104AC00021F32091D4023091D502621773070CF4C0
:104AD000B2C020919106309192062115310541F026
:104AE0006E5F7F4F24503109621773070CF4CDC0FD
:104AF0001092D6021092D7021092D8021092D902C8
:104B000080912C0590912D05A0912E05B0912F0537
:104B1000A5019401281B390B4A0B5B0BDA01C90173
:104B2000B7FDD7CD38E8830E33E1931EA11CB11C2D
:104B300080922C0590922D05A0922E05B0922F0503
:104B40006091910670919206072E000C880B990BCC
:104B50000E9437EB69837A838B839C8382E0E82E03
:104B6000F12C04E110E02FEFAE014F5F5F4F6DE8D5
:104B700076E086E39FE00E94CB21C0908D06D09026
:104B80008E06E0908F06F090900620E030E040EA3C
:104B900050E4C701B6010E9415F487FD38C020E03B
:104BA00030E046E153E4C701B6010E9430EB18162D
:104BB00074F16091910670919206072E000C880B9B
:104BC000990B0E9437EB9B01AC01C701B6010E9413
:104BD00030EB87FF45C08FE7809393067ACD0E9424
:104BE000EF22D501C4018C53964FAF4FBF4F809336
:104BF000DA029093DB02A093DC02B093DD0230CFA7
:104C0000C701B6010E9421F375956795D2CE109227
:104C100093065C985ECD43EF50E160E071E180E087
:104C20000E945F217ACD43EF50E160E071E18FEFA8
:104C30000E945F2126CF45ED50E164EE70E18FEFD9
:104C40000E945F215DCF45ED50E164EE70E180E0B0
:104C50000E945F21F3CE81E080932B0560E0A9CE16
:104C600080E0BACF70933205609331050E9420CE68
:104C7000605E714B8F4F9F4F609333057093340587
:104C80008093350590933605D9CE7093D502609305
:104C9000D4020E9420CE605A75418F4F9F4F60937F
:104CA000D6027093D7028093D8029093D90228CF6E
:104CB00081E080932B057CCE10922B0519861A86F5
:104CC0001B861C861D821E821F821886B3CD212C56
:104CD000312C00E010E017CECF93DF93EC01488138
:104CE00059816A817B818FE990E10E94C57D4C8169
:104CF0005D816E817F818BE69CE20E94C57D488547
:104D000059856A857B8587E69CE20E94C57D8AE09D
:104D1000DF91CF910C94F27CBC012091F70430918B
:104D2000F8044091F7045091F8042417350731F442
:104D300081E02617370709F080E008959A01F1CF46
:104D40000F930FB70F9300916E000F930B7F00939B
:104D50006E0000916F000D7F00936F000F930BB7F3
:104D60000F930CB70F921F922F933F934F935F9324
:104D70006F937F938F939F93AF93BF93EF93FF9323
:104D800011240E94CC2CFF91EF91BF91AF919F9184
:104D90008F917F916F915F914F913F912F911F90D4
:104DA0000F900CBF0F910BBF0F910260F89400930E
:104DB0006F000F9100936E000F910FBF0F91189528
:104DC00000C000C08091780680FF25C0459A8FEF13
:104DD0008093AD0480917806869580FF1FC0479828
:104DE0008FEF8093AE04809178068695869580FF3C
:104DF00018C02A9A8FEF8093AF0480917806869529
:104E00008695869580FF10C028988FEF8093B00418
:104E100000C000C00895459881E0DACF479A81E04C
:104E2000E0CF2A9881E0E7CF289A81E0EFCF809108
:104E3000D302982F977F9093D302982F937081E09D
:104E400011F080E008955E9A08955E988091D302F3
:104E500088608093D3020895282F30E041E050E02D
:104E600060E070E0082E04C0440F551F661F771FD6
:104E70000A94D2F740955095609570959091D30221
:104E800094239093D3022A513E4FF901208192231B
:104E900021E019F020E0822F0895813079F038F078
:104EA0008230C9F7159A9091CA069B7F04C05E9A1A
:104EB0009091CA069E7F9093CA06EDCF5E9A90911C
:104EC000CA069D7FF8CF80E00E942C2781E00E94D7
:104ED0002C2782E00E942C270C941727282F813042
:104EE000A1F098F0823099F081E090E0A0E0B0E08D
:104EF00004C0880F991FAA1FBB1F2A95D2F72091C3
:104F0000D302822B8093D30208955E98EDCF15983B
:104F1000EBCFCF92DF92EF92FF92CF93DF93EC0132
:104F200008960E9437796B017C0120E030E0A901EE
:104F30000E9430EB20E030E0A901882359F0CE0137
:104F40000E94B1799B01AC01C701B6010E9496EBAA
:104F50009B01AC01688579858A859B850E94B4F1A7
:104F6000688779878A879B87DF91CF91FF90EF9041
:104F7000DF90CF900895843021E0920714F084E010
:104F800091E09093EB028093EA020C949D1C809137
:104F90007C0490917D040C94BB27CF93DF93809188
:104FA0009802811119C0C0912601D0912701219743
:104FB00020E030E040E05FE36091E6027091E702BC
:104FC0008091E8029091E9020E94B5F10E9421F3DC
:104FD00021E06C177D070CF020E0822FDF91CF914C
:104FE00008950E94CD27882341F020E040E070E042
:104FF00060E08FEE9DE10C94A61B0C94E71BAF9232
:10500000BF92CF92DF92EF92FF920F931F93CF93B5
:10501000DF93C9EBDBE00EEE16E089ECA82E8BE007
:10502000B82EC12CD12C7601C394699179918991C4
:1050300099910E9435EB288939894A895B890E94B8
:1050400096EB0E9428F3F8016193719381939193F9
:105050008F01C616D706E806F90610F46B017C012D
:10506000AC16BD0611F76FEF7FEFCB01A7019601DC
:105070000E9478F12093FE063093FF0640930007CC
:1050800050930107DF91CF911F910F91FF90EF9007
:10509000DF90CF90BF90AF9008950F931F93CF9361
:1050A000DF930DEC1BE0C6E0D7E0F80121913191D0
:1050B000419151918F0160E070E080E89FE30E9490
:1050C000AFF26993799389939993F7E0C631DF073B
:1050D00061F70E94FFC6DF91CF911F910F910C9451
:1050E000FF270C944D280C944D280C944D280C94BB
:1050F0004D289091500F8091510F981306C08091C8
:10510000160790911707892B21F080E00E945D8798
:10511000F0CF08959091500F8091510F981308C0CF
:105120008091160790911707892B11F40C9463272F
:1051300080E00E945D87EECFCF92DF92EF92FF92E8
:10514000CF93DF932091E506222329F1EC01089605
:105150000E9437796B017C0120E030E0A9010E94B8
:1051600030EB20E030E0A901882359F0CE010E9405
:10517000B1799B01AC01C701B6010E9496EB9B017E
:10518000AC01688579858A859B850E94B5F1688721
:1051900079878A879B87DF91CF91FF90EF90DF908F
:1051A000CF9008954F925F926F927F928F929F92CD
:1051B000AF92BF92CF92DF92EF92FF920F931F9325
:1051C000CF93DF93CDB7DEB76A970FB6F894DEBF03
:1051D0000FBECDBF9A8F898F5B018A01DC01D69605
:1051E0006D917D918D919C91D9970E9435EB6B01CA
:1051F0007C01F50120813181428153810E9496EB2F
:105200000E9493F22B013C01D8012D913D914D91CB
:105210005C91C701B6010E9496EB0E9493F24B018C
:105220005C01C301B2010E9428F3698B7A8B8B8BDE
:105230009C8B683771058105910540F428E730E0C3
:1052400040E050E0298B3A8B4B8B5C8BC501B4015D
:105250000E9428F36D877E878F87988B683771054A
:105260008105910540F488E790E0A0E0B0E08D87EB
:105270009E87AF87B88BE98DFA8DEE5BFF4F20815B
:1052800031814281538129833A834B835C83CA01F4
:10529000B9010E9437EB2B013C0169897A898B891E
:1052A0009C890E9435EB69877A878B879C8720E0F1
:1052B00030E0A901C301B2010E9430EB882309F458
:1052C0003BC1A7019601C701B6010E9496EB4B01B5
:1052D0005C0129853A854B855C85CA01B9010E942C
:1052E00096EB9B01AC01C501B4010E94B4F14B01E6
:1052F0005C01A3019201C301B2010E94B5F19B01BF
:10530000AC01C501B4010E94AFF20E9493F20E9469
:1053100028F36D837E838F83988769817A818B815F
:105320009C8190958095709561957F4F8F4F9F4F91
:105330000E9437EB4B015C016D857E858F859889D6
:105340000E9435EB69837A838B839C8320E030E075
:10535000A901C501B4010E9430EB882309F4F0C013
:1053600029813A814B815C81CA01B9010E9496EB87
:105370006D8B7E8B8F8B988FA7019601C701B6012D
:105380000E9496EB9B01AC016D897E898F89988D77
:105390000E94B4F16B017C01A5019401C501B40127
:1053A0000E94B5F19B01AC01C701B6010E94AFF2AA
:1053B0000E9457F3A98DBA8D95968D909D90AD90D2
:1053C000BC909897750164012D813E814F8158856D
:1053D000C21AD30AE40AF50A0E9428F3C61AD70AA9
:1053E000E80AF90AF7FE6EC020E030E0A901C30127
:1053F000B2010E9430EB882309F4A6C0C501B401B4
:105400000E9435EB6B017C01A3019201C301B20143
:105410000E94B5F19B01AC01C701B6010E9496EB59
:105420006B017C0129853A854B855C85CA01B901F0
:105430000E9496EB9B01AC01C701B6010E94B4F13A
:105440006B017C0129813A814B815C81CA01B901E0
:105450000E9496EB9B01AC01C701B6010E94B5F119
:105460006B017C0120E030E040E850E4C301B20170
:105470000E9496EB9B01AC01C701B6010E94AFF2FE
:105480000E9493F26B017C0120E030E0A9010E94B0
:1054900015F418161CF0C12CD12C7601C701B601E9
:1054A0000E9428F36D837E838F83988786169706E4
:1054B000A806B90620F48D829E82AF82B886C12CE0
:1054C000D12C76018D819E81AF81B885E98DFA8DD1
:1054D00081A792A7A3A7B4A7C80ED91EEA1EFB1ED8
:1054E000C5A6D6A6E7A6F0AA29893A894B895C8980
:1054F00022AF33AF44AF55AFFE962D853E854F8525
:10550000588920833183428353836A960FB6F89477
:10551000DEBF0FBECDBFDF91CF911F910F91FF90E6
:10552000EF90DF90CF90BF90AF909F908F907F9043
:105530006F905F904F90089560E070E0CB01E5CEF2
:1055400060E070E0CB0134CF60E070E0CB0198CF39
:1055500090916F0081E091FD02C080E008959091EC
:105560006F009D7F90936F000895EFE6F0E08081DB
:10557000826080830895CF93C82F0E94A82A94E068
:10558000C99F90011124F901E650FB4F2A5F3A4F61
:10559000D9014D915D916D917C91408351836283DE
:1055A000738391E09093F904882319F0CF910C94C0
:1055B000B52ACF910895CF92DF92EF92FF9280911A
:1055C0007706811105C08091CB06882309F46EC04F
:1055D00080918804329964C08160809388048091AE
:1055E000880433995FC08260809388048091880426
:1055F00034995AC0846080938804C090EA04C0FE45
:1056000010C08091780680FF0CC08091880480FFD4
:1056100008C08091C90681608093C90680E00E941D
:10562000BB2AD12CF12CE12CD701C601B695A79548
:105630009795879580FF11C080917806869580FFA9
:105640000CC08091880481FF08C08091C9068260E7
:105650008093C90681E00E94BB2A82E0F694E79419
:10566000D794C7948A95D1F7C0FE20C08091780660
:105670008695869580FF1AC08091CB068823B1F06D
:105680008091880482FF12C08091C9068460809353
:10569000C90682E0FF90EF90DF90CF900C94BB2A78
:1056A0008E7F9BCF8D7FA0CF8B7FA5CFFF90EF907C
:1056B000DF90CF9008951F93CF93DF93809149019E
:1056C0008F3708F478C08F579091EC0290933A0589
:1056D000992309F46EC05D9A9091930690933905D1
:1056E000992309F472C05C9A8F5F8093490180917D
:1056F000380591E089278093380581110E94D51CD7
:105700008091480191E0980F85300CF090E0823054
:1057100009F4AAC00CF05BC0882309F470C0813082
:1057200009F497C090934801C091E002D091E10242
:10573000209709F42DC0F89413B1147082E00E94F0
:105740006E2700C000C01C161D060CF4BBC02A9AB0
:1057500000C000C02B9A00C0000082E090E00197DA
:10576000F0F72B9800C000C0112309F4ADC02A9AAD
:1057700000C000C078948091E0029091E1021C1674
:105780001D060CF0A3C001979093E1028093E00204
:105790000E94DB2A8091160790911707009729F045
:1057A00001979093170780931607DF91CF911F9170
:1057B00008955D9891CF90913A05891708F05D980A
:1057C00090913905891708F48FCF5C988DCF84307C
:1057D00009F461C00CF45BC0853009F0A3CF2091BF
:1057E0003705211102C0809337058091370581501C
:1057F00080933705882309F495CF95E093CF809166
:1058000047018F5F80311CF4809347018BCF10924A
:1058100047018091DF02811113C02091E202309193
:10582000E3023093E5022093E4022091890630914F
:105830008A0630938C0620938B0681E08093DF02EA
:105840001092E3021092E20210928A0610928906E8
:1058500069CF10927B0087E480937C0080917A006E
:10586000806480937A005ECF80917A0086FD26C0A6
:1058700040917800509179002091E2023091E3024A
:10588000240F351F3093E3022093E2024BCF109296
:105890007B0086E4E1CF80917A0086FD11C04091C3
:1058A0007800509179002091890630918A06240F62
:1058B000351F30938A062093890634CF92E032CF89
:1058C00094E030CF2A9844CF2A9852CF01965CCFEB
:1058D0000E94A82A10920207109203071092040750
:1058E0001092050781110C94B52A08950F931F9308
:1058F0008091500F9091510F891B8F7009F449C00E
:1059000090914D0F992361F0833040F48FEF890F10
:1059100029F080934D0F90E080E038C010924D0F39
:105920008091510F2AE4829FC0011124885E984F14
:10593000FC01208120FDEFCF409102075091030729
:105940006091040770910507EA5BFF4F00811181A8
:1059500022813381401B510B620B730B4093020772
:105960005093030760930407709305072091510F2C
:105970002F5F2F7020934E0F3091510F20914F0FBA
:10598000321304C020914E0F20934F0F1F910F919F
:1059900008950E94682CBFCF2F923F924F925F9242
:1059A0006F927F928F929F92AF92BF92CF92DF922F
:1059B000EF92FF920F931F93CF93DF9300D01F922C
:1059C000CDB7DEB78FEF9FEF90938900809388006B
:1059D0000AE00983312C212C78948091F304909172
:1059E000F404A091F504B091F604892B8A2B8B2B3B
:1059F00009F0C2C18091F9048823D1F08091F704A5
:105A00009091F8041092F904892B91F01092F80407
:105A10001092F7041092EA049091500F8091510F68
:105A2000981731F08091510F8F5F8F708093510FD5
:105A30008091F7049091F804892B09F49DC140915D
:105A4000EF045091F0046091F1047091F2048091A0
:105A5000EB049091EC04A091ED04B091EE04009160
:105A6000DD0410E030E020E0841B950BA60BB70BA3
:105A7000081719072A073B0710F4D901C8018A83C0
:105A8000840F951FA61FB71F8093EF049093F00417
:105A9000A093F104B093F204E1E0C090B504D0907B
:105AA000B604E090B704F090B8048091C5049091DA
:105AB000C604A091C704B091C804C80ED91EEA1E3E
:105AC000FB1EC092C504D092C604E092C704F092B7
:105AD000C804F7FC33C08091AD04082E000C990B6C
