:100000000C9400120C942A120C942A120C942A12AA
:100010000C942A120C942A120C942A120C942A1270
:100020000C942A120C942A120C942A120C942A1260
:100030000C942A120C9417250C942A120C942A1250
:100040000C942A120C94BA240C94A3210C942A1216
:100050000C9493640C9489640C942A120C942A12C4
:100060000C942A120C942A120C942A120C942A1220
:100070000C942A120C942A120C942A120C942A1210
:100080000C942A120C942A120C942A12084AD73B78
:100090003BCE016E84BCBFFDC12F3D6C74319ABD57
:1000A00056833DDA3D00C77F11BED9E4BB4C3E917B
:1000B0006BAAAABE000000803F05A84CCDB2D44E6A
:1000C000B93836A9020C50B9918688083CA6AAAA6C
:1000D0002ABE000000803F004E414E494E4954590F
:1000E000494E46CDCCCC3D0AD7233C17B7D1387703
:1000F000CC2B329595E6241FB14F0A000020410019
:1001000000C84200401C4620BCBE4CCA1B0E5AAE62
:10011000C59D7400407A10F35A00A0724E18090071
:1001200010A5D4E80000E87648170000E40B54025C
:100130000000CA9A3B000000E1F505000080969897
:1001400000000040420F000000A0860100000010E7
:100150002700000000E80300000000640000000029
:10016000000A00000000000100000000002C76D80A
:1001700088DC674F0823DFC1DFAE59E1B1B796E5F0
:10018000E3E453C63AE651997696E8E6C28426EB54
:10019000898C9B62ED407C6FFCEFBC9C9F40F2BA67
:1001A000A56FA5F490055A2AF75C936B6CF9676DFF
:1001B000C11BFCE0E40D47FEF520E6B500D0ED9054
:1001C0002E0300943577050080841E080000204E21
:1001D0000A000000C80C333333330F986E128311BA
:1001E00041EF8D2114893BE65516CFFEE6DB18D191
:1001F000844B381BF77C1D901DA4BBE42420328463
:10020000725E228100C9F124ECA1E53D27414253F1
:1002100000504C4100506C656173652052657365F8
:1002200074005052494E5445522048414C54454464
:100230000025533A202553004B494C4C45442E2071
:10024000005072696E7465722068616C7465642E0A
:10025000206B696C6C28292063616C6C6564210AD1
:10026000006563686F3A004572726F723A0020440D
:100270000020204D32303020530020284469736123
:10028000626C6564293A0046696C616D656E742024
:1002900073657474696E67730020204D32303120AD
:1002A00058004D617820416363656C6572617469C3
:1002B0006F6E2028756E6974732F733229002020A9
:1002C0004D3230332058004D617820666565647288
:1002D000617465732028756E6974732F732900200B
:1002E000520020204D323034205000416363656C51
:1002F00065726174696F6E2028756E6974732F73EF
:1003000032292028503C7072696E742D61636365D8
:100310006C3E20523C726574726163742D6163633C
:10032000656C3E20543C74726176656C2D6163632C
:10033000656C3E2900204A002054002053002020F4
:100340004D323035204200416476616E6365642031
:1003500028423C6D696E5F7365676D656E745F748E
:10036000696D655F75733E20533C6D696E5F6665B0
:100370006564726174653E20543C6D696E5F747291
:100380006176656C5F66656564726174653E204A7E
:100390003C6A756E635F6465763E290020440020E8
:1003A000490020204D333031205000486F74656E75
:1003B0006420504944002E0A00206E6F7420646946
:1003C0007361626C65642E20536861726564207786
:1003D0006974680020496E76616C69642065787480
:1003E0007275646572200020204D3230362058002E
:1003F000486F6D65206F6666736574004361703A7F
:100400000020573A00436F6F6C696E672E2E2E00E6
:1004100048656174696E672E2E2E00453120255384
:10042000004572723A207574663820666F6E7420CB
:100430006E6F7420696E697469616C697A65642E87
:10044000004572723A207574663820666F6E7420AB
:100450006E6F7420696E697469616C697A65642E67
:10046000004572723A207574663820666F6E74208B
:100470006E6F7420696E697469616C697A65642E47
:100480000042656400456E636C6F73757265002091
:100490002020202020200020202020001FE02010ED
:1004A0002010201010201020201020103030084084
:1004B000048003001FE03FF03FF03FF01FE01FE02B
:1004C0003FF03FF03FF00FC0078003003FFFF038E0
:1004D000007030FC3020FC102078102030102C00F0
:1004E000D02E31D02F7BD02F7BD02E31D02C00D0EE
:1004F00020301020781020FC1030FC303800703F85
:10050000FFF03FFFF03800703186302387102787D7
:10051000902F87D02F03D020301020781020781013
:100520002030102F03D02F87D027879023871031BA
:1005300086303800703FFFF046696C2E20446961B8
:100540002E004520696E206D6D5E33002008204628
:10055000616374002008204D6178002008204D69F7
:100560006E004F6666004F6E004175746F74656D66
:1005700070004D696E2054726176656C2056656C12
:10058000004D696E2056656C6F63697479004D612A
:100590007820452056656C004D6178205A205665BC
:1005A0006C004D617820592056656C004D617820B3
:1005B000582056656C004D61782045204163636585
:1005C0006C004D6178205A20416363656C004D6179
:1005D00078205920416363656C004D617820582074
:1005E000416363656C0054726176656C204163639E
:1005F000656C005265747261637420416363656C5D
:1006000000416363656C00452073746570732F6DE2
:100610006D005A2053746570732F6D6D005920530F
:10062000746570732F6D6D00582053746570732F4F
:100630006D6D00416476616E63656420536574740A
:10064000696E6773004D3432380046696C616D65C0
:100650006E740054656D70657261747572650053D7
:10066000746570732F6D6D004A756E6374696F6E7B
:100670002044657600416363656C65726174696FDF
:100680006E0056656C6F6369747900536574204819
:100690006F6D65204F66667365747300436F6E6699
:1006A000696775726174696F6E004E6F7A7A6C65F6
:1006B0000046616E20537065656400436F6E666925
:1006C0006775726174696F6E00526573746F7265DD
:1006D0002044656661756C7473005072656865616D
:1006E00074202420436F6E6600416476616E6365FA
:1006F000642053657474696E6773004D61696E00A0
:10070000436F6E66696775726174696F6E005465D8
:100710006D7065726174757265004D6F74696F6E8E
:100720000054756E6500496E666F2053637265658F
:100730006E002100486F74656E6420746F6F2063D3
:100740006F6C64004261636B0050726F6365656437
:10075000004D6F74696F6E0044697361626C65204F
:100760005374657070657273004D38340041757450
:100770006F20486F6D6500473238004D61696E002B
:1007800011020D02436F6F6C646F776E00507265DB
:100790006865617420240046616E2053706565644D
:1007A000004E6F7A7A6C65004D61696E00466C6F21
:1007B000770046616E205370656564004E6F7A7AEB
:1007C0006C65005370656564004D61696E006F7003
:1007D000656E00545249474745524544003A20004F
:1007E0007A5F6D696E00795F6D696E00785F6D6923
:1007F0006E005265706F7274696E6720656E647307
:10080000746F70207374617475730A005761726E2F
:10081000696E673A20486F6D696E672042756D702A
:100820002044697669736F72203C20310A0002020D
:10083000040000484300004843000048430000A073
:10084000400000A040000000400000484300004875
:1008500043000048430000000000000000000000CA
:100860000048617264636F64656420446566617505
:100870006C742053657474696E6773204C6F616487
:1008800065640A0000009643000096430000A04003
:100890000000C8410000A0420000A0420000C84380
:1008A0000000FA43B80B0000B80B00006400000021
:1008B0001027000020286D6D2900204600204800E8
:1008C00020204D3134352053004D617465726961CB
:1008D0006C2068656174757020706172616D6574FB
:1008E0006572730020204D3134392043203B205560
:1008F0006E69747320696E2043656C736975730A41
:100900000054656D706572617475726520556E690D
:100910007473002020473231203B004C696E6561C2
:100920007220556E6974730024F4D43050C38E2045
:10093000C2A24017828B7011127A910D816CD90A74
:10094000A861E108C7586607615143061E4B5D0563
:10095000C145A7041A411104093D980371393103B7
:100960004036DB0265339102D4305402802E1D02E2
:10097000632CEE01752AC501B028A0011027810162
:100980008F2564012B244B01E0223401AC211F018F
:100990008D200D01801FFC00841EED00971DDF00DF
:1009A000B81CD200E61BC600201BBC00641AB200B3
:1009B000B219A8000A19A0006A189900D11791006D
:1009C00040178B00B516840031167E00B3157900F0
:1009D0003A157300C7146F0058146A00EE136600CE
:1009E0008813630025135E00C7125B006C1257006A
:1009F00015125400C111510070114F0021114B000C
:100A0000D61049008D1047004610440002104200E5
:100A1000C00F4000800F3E00420F3C00060F3B001D
:100A2000CB0E3800930E37005C0E3500270E3400D5
:100A3000F30D3200C10D3100900D3000600D2E001D
:100A4000320D2D00050D2C00D90C2B00AE0C290009
:100A5000850C29005C0C2700350C27000E0C2600A5
:100A6000E80B2400C40B2400A00B23007D0B230003
:100A70005A0B2100390B2100180B2000F80A1F0027
:100A8000D90A1E00BB0A1E009D0A1D00800A1D0017
:100A9000630A1C00470A1B002C0A1B00110A1A00DB
:100AA000F7091A00DD091900C4091900AB0919007A
:100AB000920917007B091800630917004C091600FA
:100AC00036091600200916000A091500F508150058
:100AD000E0081400CC081400B8081400A40814009E
:100AE000900813007D0812006B08130058081200CC
:100AF00046081200340811002308110012081100E2
:100B000001081100F0071000E0071000D0071000E6
:100B1000C0071000B0070F00A107100091070E00DA
:100B200083070F0074070F0065070E0057070E00BC
:100B300049070E003B070D002E070E0020070D0091
:100B400013070D0006070D00F9060C00ED060D0059
:100B5000E0060C00D4060C00C8060C00BC060C0015
:100B6000B0060C00A4060B0099060C008D060B00C5
:100B700082060B0077060B006C060B0061060A006C
:100B800057060B004C060A0042060A0038060A0007
:100B90002E060A0024060A001A060A00100609009A
:100BA00007060A00FD050900F4050900EB05090028
:100BB000E2050900D9050900D0050900C7050900AB
:100BC000BE050900B5050800AD050800A50509002A
:100BD0009C050800940508008C05080084050800A1
:100BE0007C050800740508006C0507006505080011
:100BF0005D050700560508004E050700470507007C
:100C00004005080038050700310507002A050700E0
:100C1000230507001C050600160507000F05070041
:100C20000805060002050700FB040600F50407009E
:100C3000EE040600E8040600E2040700DB040600F8
:100C4000D5040600CF040600C9040600C30406004C
:100C5000BD040600B7040600B1040500AC0406009C
:100C6000A6040600A00405009B04060095040500E8
:100C7000900406008A04050085040500800406002F
:100C80007A04050075040500700405006B04050076
:100C900066040500610405005C04050057040500B6
:100CA000520405004D0405004804050043040500F6
:100CB0003E0404003A040500350405003004040035
:100CC0002C04050027040400230405001E0404006E
:100CD0001A04040016040500110404000D040400A5
:100CE000090405000404040000040400FC030400DB
:100CF000F8030400F4030400F0030400EC03040010
:100D0000E8030400E4030400E0030400DC0304003F
:100D1000D8030400D4030400D0030400CC0304006F
:100D2000C8030300C503030024F404D9201BC40C2A
:100D30005C0E9804C4095F0265077101F405F900AF
:100D4000FB04B30048048700C10369005803550041
:100D500003034500BE023A008402310053022A0018
:100D60002902250004022000E4011C00C80119002A
:100D7000AF011700980114008401130071011000E5
:100D80006101100051010E0043010D0036010B00FE
:100D90002B010B0020010B00150109000C010900BB
:100DA00003010800FB000800F3000800EB00070047
:100DB000E4000600DE000600D8000600D2000600AF
:100DC000CC000500C7000500C2000500BD000400FE
:100DD000B9000400B5000400B1000400AD00040037
:100DE000A9000400A5000300A20003009F00040066
:100DF0009B0003009800030095000200930003008D
:100E0000900003008D0002008B00030088000200A8
:100E10008600020084000300810002007F000200BF
:100E20007D0002007B0002007900020077000100D3
:100E300076000200740002007200010071000200DE
:100E40006F0002006D0001006C0002006A000100EA
:100E500069000200670001006600010065000100F2
:100E600064000200620001006100010060000100F6
:100E70005F0002005D0001005C0001005B000100FA
:100E80005A000100590001005800010057000100FC
:100E900056000100550001005400010053000000FD
:100EA00053000100520001005100010050000100F8
:100EB0004F0001004E0000004E0001004D000100F7
:100EC0004C0001004B0000004B0001004A000100F3
:100ED00049000100480000004800010047000100EF
:100EE00046000000460001004500000045000100EA
:100EF00044000100430000004300010042000000E4
:100F000042000100410000004100010040000100DA
:100F10003F0000003F0001003E0000003E000100D5
:100F20003D0000003D0001003C0000003C000000CE
:100F30003C0001003B0000003B0001003A000000C3
:100F40003A000100390000003900010038000000BB
:100F500038000000380001003700000037000100B1
:100F600036000000360000003600010035000000A9
:100F7000350000003500010034000000340000009E
:100F80003400010033000000330000003300010092
:100F90003200000032000000320001003100000089
:100FA000310000003100010030000000300000007E
:100FB000300001002F0000002F0000002F00000073
:100FC0002F0001002E0000002E0000002E00010066
:100FD0002D0000002D0000002D0000002D0001005C
:100FE0002C0000002C0000002C0000002C00010050
:100FF0002B0000002B0000002B0000002B00010044
:101000002A0000002A0000002A0000002A00010037
:10101000290000002900000029000000290000002C
:10102000290001002800000028000000280000001E
:101030002800000028000100270000002700000011
:101040002700000027000000270001002600000004
:1010500026000000260000002600000026000100F7
:1010600025000000250000002500000025000000EC
:1010700025000000250001002400000024000000DD
:1010800024000000240000002400010023000000D0
:1010900023000000230000002300000023000000C4
:1010A00023000000230001002200000022000000B5
:1010B00022000000220000002200000022000100A7
:1010C000210000002100000021000000210000009C
:1010D000210000002100000021000100200000008C
:1010E0002000000020000000200000002000000080
:1010F0002000000020000000200001001F00000070
:101100001F0000001F0000001F0000001F00000063
:101110001F0000001F0001001E0000001E00000054
:101120001E0000001E000000043700001E29000001
:10113000511B00005810000010090000CC040000F2
:10114000780200004101000020436F756E74205842
:101150003A0045310045002C2073797374656D2089
:1011600073746F7070656421204865617465725F87
:1011700049443A20004572723A204D415854454D39
:1011800050004D415854454D502074726967676551
:10119000726564004572723A204D494E54454D5077
:1011A000004D494E54454D50207472696767657211
:1011B000656400202F0020403A006D61726C696EFA
:1011C00066772E6F726700322E302E392E32001F56
:1011D000FFFFFFFFFFFF600000000001FF40000075
:1011E000000000FF8000000000007F83CF00000CA3
:1011F000303F87FF80000C301F867980000C000F85
:101200008C30C7838C30E78C30CFC7CC31F38C3037
:10121000DCECEC33B98C30D86C6C33198C30D06C7E
:101220000C33198C30D86C0C33198C30DC6C0E3BC1
:10123000198C30CF7C079F198C30C77C038F1940E5
:10124000000000000002600000000000061FFFFF19
:10125000FFFFFFF82020506C616E6E65724275666C
:1012600066657242797465733A200020467265653E
:10127000204D656D6F72793A200020436F6D706963
:101280006C65643A204F6374203231203230323141
:101290000A00204C61737420557064617465643A6F
:1012A00020323032312D30392D3033207C204175C1
:1012B00074686F723A20284461726975732C2052E9
:1012C0006169736375626520636F6E666967290A79
:1012D000004D61726C696E20322E302E392E320A2A
:1012E0000020536F66747761726520526573657470
:1012F0000A00205761746368646F672052657365E4
:10130000740A002042726F776E206F7574205265E8
:101310007365740A002045787465726E616C2052A2
:10132000657365740A00506F77657255700A0073B3
:10133000746172740A00456E6473746F7073002573
:101340005320256320256320256320256300205A30
:101350003A0020593A0020583A00656E6473746F61
:101360007073206869743A2000000C0F00FE0702B9
:101370002503BB017FFE08FE08FE050808060000E5
:1013800040F0C88888987810050808060000C0F862
:101390008888888888F80505050600012030F8301F
:1013A000200508080600002070F820202020E00515
:1013B00009090600FF2070A8A8B8888870200705D2
:1013C00005070001D86C366CD80509090600FFF83E
:1013D000A88888888888A8F8050A0A0600FE205090
:1013E00050505088A8A8887003030306000340A04B
:1013F00040FFFFFFFFFFFFFFFFFFFFFFFFFFFFFFBC
:10140000FFFFFFFFFFFFFF0000000605FF010707CA
:1014100006020080808080800080030303060105AF
:10142000A0A0A005060606000050F85050F8500590
:1014300009090600FF2070A8A07028A870200507E1
:1014400007060000C8C81020409898050707060046
:101450000040A0A040A89068010303060205808018
:10146000800309090601FF20404080808040402021
:101470000309090601FF80404020202040408005EC
:10148000070706000020A8702070A82005050506A3
:1014900000012020F820200203030601FFC0408045
:1014A000050101060003F8020202060100C0C005A2
:1014B00007070600000810102040408005070706B7
:1014C0000000708898A8C8887003070706010040CC
:1014D000C040404040E00507070600007088081043
:1014E0002040F8050707060000F80810300888704B
:1014F00005070706000010305090F8101005070788
:10150000060000F880F0080888700507070600004C
:10151000304080F0888870050707060000F8081042
:101520001020202005070706000070888870888832
:1015300070050707060000708888780810600205AB
:1015400005060100C0C000C0C00206060601FFC0BB
:10155000C000C040800305050601012040804020F6
:10156000050303060002F800F803050506010180E3
:1015700040204080050707060000708810202000EA
:10158000200507070600007088B8A8B88070050716
:1015900007060000708888F8888888050707060015
:1015A00000F04848704848F00507070600007088BA
:1015B0008080808870050707060000F0484848488A
:1015C00048F0050707060000F88080F08080F805E5
:1015D0000707060000F88080F08080800507070676
:1015E00000007088808098887005070706000088D2
:1015F0008888F8888888030707060100E040404093
:101600004040E005070706000038101010109060F9
:101610000507070600008890A0C0A090880507076E
:10162000060000808080808080F8050707060000A3
:1016300088D8A8888888880507070600008888C891
:10164000A898888805070706000070888888888819
:1016500070050707060000F08888F0808080050785
:101660000706000070888888A890680507070600AC
:1016700000F08888F0A090880507070600007088B1
:101680008070088870050707060000F820202020D9
:10169000202005070706000088888888888870054C
:1016A000070706000088888888505020050707062D
:1016B000000088888888A8A85005070706000088C9
:1016C0008850205088880507070600008888502029
:1016D000202020050707060000F80810204080F8A9
:1016E0000309090601FFE080808080808080E0059A
:1016F0000707060000804040201010080309090673
:1017000001FFE020202020202020E0050303060028
:10171000052050880501010600FEF80303030601B9
:1017200005804020050505060000700878887805CA
:1017300007070600008080F0888888F00505050608
:101740000000708080887005070706000008087890
:10175000888888780505050600007088F080700587
:101760000707060000304840E040404005070706F4
:1017700000FE7088888878087005070706000080DA
:1017800080F0888888880307070601004000C04071
:101790004040E00409090601FE100030101010104E
:1017A000906005070706000080808890E09088031D
:1017B0000707060100C04040404040E0050505061F
:1017C0000000D0A8A8A8A8050505060000B0C88894
:1017D0008888050505060000708888887005070759
:1017E0000600FEF0888888F080800507070600FE66
:1017F00078888888780808050505060000B0C88044
:10180000808005050506000078807008F005070750
:101810000600002020F820202018050505060000FD
:101820008888889868050505060000888888502003
:101830000505050600008888A8A8500505050600CE
:101840000088502050880507070600FE88888850C9
:10185000204080050505060000F8102040F8030927
:10186000090601FF20404040804040402001090916
:101870000602FF80808080808080808003090906C6
:1018800001FF8040404020404040800503030600A7
:101890000248A890FF434F4D4D554E49434154498E
:1018A0004F4E0044525952554E004552524F5253DA
:1018B00000494E464F004543484F0070012C0190AF
:1018C000012701B0012201C0011D01F00118011022
:1018D00002130130020E016002090190020401C0EE
:1018E00002FF000003FA004003F5008003F000D07F
:1018F00003EB002004E6007004E100E004DC00409B
:1019000005D700C005D2004006CD00D006C8008033
:1019100007C3003008BE00F008B900C009B400B029
:101920000AAF00B00BAA00D00CA500000EA000501A
:101930000F9B00C01096005012910000148C00C044
:10194000158700B0178200B0197D00D01B78000009
:101950001E730040206E0090226900F02464004055
:10196000275F0090295A00E02B5500102E500020D0
:10197000304B0010324600E033410090353C0010FF
:1019800037370070383200A0392D00B03A2800A057
:101990003B2300603C1E00103D1900903D140010D8
:1019A0003E0F00703E0A00C03E0500003F000040B0
:1019B0003FFBFF803FF6FFC03FF1FF004D6F7665B4
:1019C0002025736D6D004D6F766520302E316D6D65
:1019D000004D6F766520316D6D004D6F766520315D
:1019E000306D6D004D6F76652041786973004D6FE5
:1019F0007665204578747275646572004D6F766502
:101A0000205A004D6F76652059004D6F766520583D
:101A1000006F6B00496E76616C6964206578747242
:101A2000756465720A00454550524F4D20646973D4
:101A300061626C65640A00486F6D652025732573CB
:101A40002573204669727374004F666673657473FC
:101A5000204170706C696564004572723A20546F61
:101A60006F206661722100546F6F2066617220667C
:101A7000726F6D207265666572656E636520706F4A
:101A8000696E740A00000000000000000000000001
:101A90000023646566696E652044454641554C5493
:101AA0005F004B6420004B6920004B7020005049C0
:101AB00044204175746F74756E652066696E697334
:101AC000686564212050757420746865206C6173AA
:101AD00074204B702C204B6920616E64204B642075
:101AE000636F6E7374616E74732066726F6D2062C3
:101AF000656C6F7720696E746F20436F6E666967DF
:101B000075726174696F6E2E680A005049442041F5
:101B100075746F74756E65206661696C65642120EB
:101B200074696D656F75740A00544845524D414C97
:101B30002052554E4157415900546865726D616C91
:101B40002052756E617761790048656174696E67CE
:101B5000204661696C65640048656174696E672040
:101B60006661696C656400504944204175746F7406
:101B7000756E65206661696C6564212054656D70C1
:101B80006572617475726520746F6F20686967682B
:101B90000A00504944204379636C65730025532043
:101BA00025692F256900204B643A2000204B693AB3
:101BB0002000204B703A200020436C6173736963EE
:101BC00020504944200A002054753A2000204B75CB
:101BD0003A2000206D61783A2000206D696E3A202D
:101BE0000020643A200020626961733A2000255386
:101BF00000504944204175746F74756E652073748C
:101C00006172740A00504944204175746F74756E96
:101C100065206661696C6564212054656D7065722C
:101C2000617475726520746F6F20686967680A0057
:101C3000504944204175746F74756E652066616902
:101C40006C6564212042616420686561746572205E
:101C500069640A00504944204175746F74756E655B
:101C60000064697300656E0043290A0061626C6557
:101C70006420286D696E2074656D702000436F6C60
:101C800064206578747275646573206172652000E4
:101C900020466C6F773A200046523A002058004F99
:101CA0004646004F4E003B200020204D61783A20F0
:101CB00000200020204D696E3A2000203B200020AB
:101CC000204D3231312053003F4A206F7574206F10
:101CD000662072616E67652028302E303120746F67
:101CE00020302E33290A004D31343520533C696EA3
:101CF0006465783E206F7574206F662072616E6730
:101D0000652028302D31290A002F2F004D454154E0
:101D10005041434B00434F4F4C45525F54454D504B
:101D200045524154555245004348414D4245525F4A
:101D300054454D5045524154555245004241425937
:101D40005354455050494E470041524353004D4F64
:101D500054494F4E5F4D4F44455300544845524DF2
:101D6000414C5F50524F54454354494F4E004C4FE5
:101D70004E475F46494C454E414D45004155544FF5
:101D80005245504F52545F53445F5354415455533E
:101D90000053445F57524954450052455045415401
:101DA000005344434152440050524F4D50545F53EE
:101DB0005550504F525400484F53545F414354497B
:101DC0004F4E5F434F4D4D414E445300454D45529C
:101DD00047454E43595F504152534552004341538A
:101DE000455F4C494748545F4252494748544E4525
:101DF000535300544F47474C455F4C494748545351
:101E000000534F4654574152455F504F574552007B
:101E10004255494C445F50455243454E54004C4551
:101E200056454C494E475F44415441005A5F505219
:101E30004F42450052554E4F5554004155544F4C5A
:101E40004556454C005052494E545F4A4F4200504F
:101E5000524F4752455353004155544F5245504FEE
:101E600052545F54454D50004155544F5245504FC8
:101E700052545F504F5300564F4C554D45545249A4
:101E80004300454550524F4D0042494E4152595F23
:101E900046494C455F5452414E53464552005345C6
:101EA0005249414C5F584F4E5F584F464600464995
:101EB000524D574152455F4E414D453A4D61726C0E
:101EC000696E20322E302E392E3220284F63742036
:101ED000323120323032312031333A31393A3034F4
:101EE0002920534F555243455F434F44455F555258
:101EF0004C3A6769746875622E636F6D2F4D61721D
:101F00006C696E4669726D776172652F4D61726C96
:101F1000696E2050524F544F434F4C5F56455253B9
:101F2000494F4E3A312E30204D414348494E455F8E
:101F3000545950453A4461726961757320334420A5
:101F400045585452554445525F434F554E543A31CB
:101F500020555549443A63656465326132662D34D3
:101F60003161322D343734382D396231322D6335B9
:101F7000356336326633363766660A004461726905
:101F8000617573203344204F46462E004D31313366
:101F90002053006F666600B618B118AA18A31895EA
:101FA0001844454255473A006F6B00256973002578
:101FB000696D20256973002569682025696D2025D4
:101FC000697300256964202569682025696D2025CD
:101FD00069730025697920256964202569682025B1
:101FE000696D20256973005072696E742074696D83
:101FF000653A2000616C736F20656E61626C656488
:10200000290A004E6F204D6F76652E00436C696380
:102010006B20746F20526573756D652E2E2E0053E4
:102020006C6565702E2E2E0047322F47332062617B
:102030006420706172616D65746572730A0020744A
:102040006F6F206C6F6E6720657874727573696F3F
:102050006E2070726576656E7465640A0020636F29
:102060006C6420657874727573696F6E2070726528
:1020700076656E7465640A00486F6D696E67204608
:1020800061696C656400FFFFFF446172696175738B
:102090002033442052656164792E005072696E7459
:1020A000696E672E2E2E005072696E742050617515
:1020B0007365640020453A00205A3A0020593A00DE
:1020C000583A00204500205A0020590020204D3960
:1020D0003220580053746570732070657220756EDD
:1020E000697400220A00556E6B6E6F776E20636F05
:1020F0006D6D616E643A202200627573793A2070CA
:10210000617573656420666F7220696E7075740AFC
:1021100000627573793A2070617573656420666F2B
:102120007220757365720A00627573793A20707255
:102130006F63657373696E670A00000021002400F5
:1021400027002A004D3131322053687574646F774F
:102150006E0053544F505045442E20005072696E0B
:102160007465722073746F70706564206475652087
:10217000746F206572726F72732E204669782074B6
:102180006865206572726F7220616E642075736578
:10219000204D39393920746F2072657374617274FF
:1021A0002E202854656D70657261747572652069A2
:1021B000732072657365742E2053657420697420D2
:1021C00061667465722072657374617274696E679A
:1021D000290A004E6F20436865636B73756D207725
:1021E000697468206C696E65206E756D6265722C0D
:1021F000204C617374204C696E653A2000636865F9
:10220000636B73756D206D69736D617463682C20E9
:102210004C617374204C696E653A20004C696E65A0
:10222000204E756D626572206973206E6F74204C4C
:10223000617374204C696E65204E756D6265722BFA
:10224000312C204C617374204C696E653A20004D2E
:102250003131300053657269616C2073746174753B
:1022600073206D69736D617463680A002121204BCE
:10227000494C4C20636175736564206279204B4939
:102280004C4C20627574746F6E2F70696E0A002159
:1022900021204B494C4C2063617573656420627941
:1022A00020746F6F206D75636820696E6163746957
:1022B00076652074696D65202D2063757272656E78
:1022C0007420636F6D6D616E643A2000DB0FC93F4F
:1022D00045BCDA3F8FB30240FCF027405694614082
:1022E000FE4B9B4084A5D840E0231841346A5641F8
:1022F000E859974164DBD5416E271742B4B7554280
:10230000CE1A9742C8AED542B5885A43D40684BF88
:10231000A65FA7BF7443E0BF10B11AC01C2C58C001
:10232000E8F697C0B849D6C04E4E17C124D355C160
:10233000802497C1A0B5D5C1121A17C244AE55C2A8
:10234000781797C26CACD5C267885AC320746F6F78
:10235000206C6F6E6720657874727573696F6E207C
:1023600070726576656E7465640A0020636F6C64D4
:1023700020657874727573696F6E2070726576650A
:102380006E7465640A006F6B0A00526573656E6453
:102390003A200000002200250028002B0002020243
:1023A00002020202020404040404040404030303FA
:1023B00003030303030101010101010101010204FF
:1023C000081020408001020408102040800102040F
:1023D0000810204080804020100804020100000006
:1023E000010200090A0000000004030807000000C1
:1023F0000000000000000000000000000000B3A189
:1024000011241FBECFEFD0E4DEBFCDBF11E0A0E0AE
:10241000B1E0E6E3F1E601E00BBF02C007900D92E8
:10242000A83AB107D9F72DE0A8EAB1E001C01D92A2
:10243000AC3AB207E1F711E1C0E0D2E104C0219764
:10244000FE010E9443B0CF3FD107C9F70E941F9EF3
:102450000C9499B00C940000AF92BF92CF92DF928F
:10246000EF92FF920F931F93CF93DF936C017B0149
:102470008B01040F151FEB015E01AE18BF08C017DA
:10248000D10759F06991D601ED91FC910190F0814D
:10249000E02DC6010995892B79F7C501DF91CF9110
:1024A0001F910F91FF90EF90DF90CF90BF90AF9072
:1024B00008953FB7F8948091300490913104A09131
:1024C0003204B091330426B5A89B05C02F3F19F004
:1024D0000196A11DB11D3FBFBA2FA92F982F8827A4
:1024E000BC01CD01620F711D811D911D42E0660F7F
:1024F000771F881F991F4A95D1F708958F929F9251
:10250000AF92BF92CF92DF92EF92FF926B017C016C
:102510000E9459124B015C01C114D104E104F10481
:10252000B9F00E945912681979098A099B09683E15
:1025300073408105910580F321E0C21AD108E108BA
:10254000F10888EE880E83E0981EA11CB11CE4CF30
:10255000FF90EF90DF90CF90BF90AF909F908F90C3
:1025600008950895FC01DB0111968C911197228149
:10257000821770F19381981758F14C919581491702
:1025800038F514965C910680F781E02D821B883027
:1025900018F0E90FF11D8770969596959695642F22
:1025A000677020E830E002C0359527956A95E2F71C
:1025B000989F802D1124469546954695840F99271E
:1025C000991FE80FF91F8081552319F0282B2083CC
:1025D000089520952823FBCF80E00895DC01149610
:1025E0008D919C9115978617970709F43CC0159615
:1025F0007C936E9314976115710579F157968C91C0
:102600005797FB01811130C03596E4915896EC93B1
:102610005897645F7F4FFB01649159966C9359976B
:1026200058968C915897082E000C990B59962C911E
:102630005997821B910927FD93955A962C915A9789
:10264000203441F0829FC001112426E096958795A1
:102650002A95E1F75B968C935B978CEE92E1569608
:102660009C938E9355970895813041F43F96E49161
:102670005896EC935897605F7F4FCDCF3D96E4918D
:102680005896EC935897625F7F4FC5CFFC018081CD
:102690000895FC018491882321F0823011F083E0B9
:1026A000089586E0089581E00895FC0190E1ABEF84
:1026B000B3E001900D929A95E1F7089500C000C033
:1026C00080913D0480FF25C045988FEF8093A20341
:1026D00080913D04869580FF1FC0479A8FEF8093BD
:1026E000A30380913D048695869580FF18C02A98A3
:1026F0008FEF8093A40380913D04869586958695FF
:1027000080FF10C028988FEF8093A50300C000C001
:102710000895459A81E0DACF479881E0E0CF2A9A80
:1027200081E0E7CF289A81E0EFCFCF92DF92EF925E
:10273000FF928091C304882309F457C0C090BF045E
:10274000D090C004E090C104F090C20420E030E0DA
:10275000A901C701B6010E9466A6882309F445C0F5
:1027600020E030E040E05FE3C701B6010E94CCA664
:102770009B01AC010E94CCA62BED3FE049E450E464
:102780000E94CCA69B01AC0160E070E080E89FE372
:102790000E94CFAD6B017C01C092AF04D092B00417
:1027A000E092B104F092B20460912501709126018B
:1027B000072E000C880B990B0E946DA62AE037EDBE
:1027C00043E25CE30E94CCA6A70196010E94CCA63E
:1027D000609358017093590180935A0190935B0163
:1027E000FF90EF90DF90CF900895C12CD12C80E81E
:1027F000E82E8FE3F82ED0CF109227051092900389
:102800001092910310929203109293031092CD04B0
:102810001092CE041092CF041092D00410928C0328
:1028200010928D0310928E0310928F030895CF9211
:10283000DF92EF92FF92FC01C080D180E280F380B2
:1028400020E030E0A901C701B6010E9466A687FF1B
:1028500068C0C701B601905820E030E040E251E482
:102860000E94CCA620E030E040EA50E40E94D5ACC3
:1028700020E030E040E251E40E94CFAD0E9441AE42
:102880009B0160E22031F7E23F0730F0C90160E1CF
:1028900077E20E94FCAF605D60938603283E83E090
:1028A000380708F445C0C90168EE73E00E94FCAF28
:1028B000CB016AE070E00E94FCAF805D80938703EB
:1028C00080E22436310558F0C90164E670E00E94C8
:1028D000FCAFCB016AE070E00E94FCAF805D8093AA
:1028E000880380E22A30310558F0EAE0F0E0C901BF
:1028F000BF010E94FCAFCB01BF010E94FCAF805D15
:1029000080938903C9016AE070E00E94FCAF805D9A
:1029100080938A0386E893E0FF90EF90DF90CF905A
:10292000089520E030E040E251E4C701B60198CFBD
:1029300080E2C4CF8F929F92AF92BF92CF92DF92EC
:10294000EF92FF92FC01C080D180E280F38020E012
:1029500030E040E251E4C701B6010E94CCA620E07D
:1029600030E040E251E40E94CCA64B015C0120E043
:1029700030E0A901C701B6010E9466A620E030E060
:1029800040EA50E487FF04C020E030E040EA50EC29
:10299000C501B4010E94D5AC20E030E040E251E432
:1029A0000E94CFAD0E9441AE9B018BE237FF05C074
:1029B00022273327261B370B8DE280938503C9011D
:1029C00068EE73E00E9410B0CB01EAE0F0E0BF01D6
:1029D0000E9410B0805D80938603C90164E670E0B8
:1029E0000E9410B0CB01BF010E9410B0805D8093A7
:1029F0008703C901BF010E9410B0282FCB01BF017E
:102A00000E9410B0805D809388038EE280938903DA
:102A1000205D20938A0385E893E0FF90EF90DF909C
:102A2000CF90BF90AF909F908F9008958F929F927C
:102A3000AF92BF92CF92DF92EF92FF92CF93FC01C1
:102A4000C080D180E280F38020E030E040E251E4B9
:102A5000C701B6010E94CCA620E030E048EC52E469
:102A60000E94CCA64B015C0120E030E040E251EC3A
:102A7000C701B6010E9466A6181654F420E030E0A3
:102A800048EC52E4C701B6010E9435AF87FD86C00D
:102A900020E030E0A901C701B6010E9466A687FFC9
:102AA0006EC060E070E080EA90ECA50194010E94A5
:102AB000D5AC20E030E040E251E40E94CFAD0E946E
:102AC00041AE6B017C01F7FC5FC020E137E240E0E2
:102AD00050E00E9424B0CA01B9012AE030E040E091
:102AE00050E00E9424B0605D60938503C701B60189
:102AF00028EE33E040E050E00E9424B09AE0892EB6
:102B0000912CA12CB12CCA01B901A50194010E94FC
:102B100024B0605D60938603C701B60124E630E00F
:102B200040E050E00E9424B0CA01B901A50194011F
:102B30000E9424B0605D609387038EE280938803D7
:102B4000C701B601A50194010E9424B0C62FCA0195
:102B5000B901A50194010E9424B0605D60938903CE
:102B6000C05DC0938A0385E893E0CF91FF90EF901A
:102B7000DF90CF90BF90AF909F908F90089560E0CE
:102B800070E080EA90E491CFF094E094D094C09407
:102B9000C11CD11CE11CF11C6DE2A6CF20E030E08D
:102BA000A901C701B6010E9466A687FF6AC060E05E
:102BB00070E080EA90ECA50194010E94D5AC20E081
:102BC00030E040E251E40E94CFAD0E9441AE4B01A3
:102BD0005C0120E030E0A901C701B6010E9435AFD9
:102BE00087FD0BC020E030E040E251E4C701B601B0
:102BF0000E9466A660E287FD13C0B7FC47C0C5010E
:102C0000B40128EE33E040E050E00E9424B0CA0155
:102C1000B9012AE030E040E050E00E9424B0605D5D
:102C200060938603C501B40124E630E040E050E043
:102C30000E9424B08AE0C82ED12CE12CF12CCA01CC
:102C4000B901A70196010E9424B0605D60938703DB
:102C50008EE280938803C501B401A70196010E940A
:102C600024B0C62FCA01B901A70196010E9424B061
:102C7000605D60938903C05DC0938A0386E893E03A
:102C800074CF60E070E080EA90E495CFB094A094B7
:102C900090948094811C911CA11CB11C6DE2C0CF4A
:102CA0009C0197FF26C0EE27FF27E81BF90B2D3963
:102CB0008FEF38070CF05DC08DE280938703CF0162
:102CC00064E670E00E9410B0CB012AE030E0B90168
:102CD0000E9410B0805D80938803CF01B9010E94EB
:102CE00010B0CB01B9010E9410B0805D80938903C0
:102CF0002AC0283E83E03807B4F1C90168EE73E0CA
:102D00000E9410B0CB01EAE0F0E0BF010E9410B0D9
:102D1000805D80938703C90164E670E00E9410B073
:102D2000CB01BF010E9410B0805D80938803C90170
:102D3000BF010E9410B0CB01BF010E9410B0805DA6
:102D400080938903F901CF016AE070E00E9410B01E
:102D5000805D80938A0387E893E008958DE237FDD4
:102D6000C5CF80E2C3CFF90180E2243631050CF0F3
:102D7000A4CF80E28093870380938803EA30F10533
:102D80006CF38DE237FF80E280938803CF016AE025
:102D900070E00E9410B0605D60938903D4CF9C0105
:102DA00097FD2DC080E2243631055CF0C90164E650
:102DB00070E00E9410B0CB016AE070E00E9410B099
:102DC000805D8093880380E22A3031055CF0EAE080
:102DD000F0E0C901BF010E9410B0CB01BF010E9409
:102DE00010B0805D80938903C9016AE070E00E94A1
:102DF00010B0805D80938A0388E893E00895319550
:102E0000219531098DE2DDCF24E6829FC001112496
:102E100081589F4F6FEF70E00E9410B0262F81E322
:102E2000643609F080E28093870390E22A3040F014
:102E30003AE0822F632F0E94E2AF0E94E2AF905DE2
:102E400090938803822F6AE00E94E2AF905D909396
:102E5000890385E280938A0387E893E0089560916F
:102E6000250170912601072E000C880B990B0E94FA
:102E70006DA62AE037ED43E25CE30E94CCA62091E8
:102E8000AF043091B0044091B1045091B2040E945B
:102E9000CCA6609358017093590180935A01909386
:102EA0005B0108958091AA04811104C08091880477
:102EB000809307070895FC0184910895CF93DF93D1
:102EC000EC01CB01BA010E946DA629EC38EC48EC6C
:102ED0005EE30E94CFAD20E030E040E05FE30E947F
:102EE000D5AC0E9448AE6883DF91CF9108950E94CF
:102EF0006DA629EC38EC48EC5EE30E94CFAD20E0F3
:102F000030E040E05FE30E94D5AC0E9448AE862FDF
:102F10000C940417E091AA0484E0E802F001112463
:102F2000EB53FB4F8091880490E093838283089554
:102F3000CF93DF9300D000D0CDB7DEB70E9448AE6C
:102F40000E946BA669837A838B839C83CE01019652
:102F50000E9417140F900F900F900F90DF91CF9158
:102F600008958F929F92AF92BF92CF92DF92EF928D
:102F7000FF92CF936B017C0120E030E0A9010E9419
:102F800066A687FDAAC06DEB77E386E095E3A7010F
:102F900096010E94D5AC6B017C0120E030E0A901D4
:102FA0000E9466A687FF9EC0C701B601905820E028
:102FB00030E040E251E40E94CCA620E030E040E264
:102FC00051E40E94CCA620E030E040EA50E40E94A8
:102FD000D5AC20E030E040E251E40E94CFAD0E9449
:102FE00041AE6B017C0180E28093840360E280E16A
:102FF000C81687E2D806E104F1048CF0C701B601D7
:1030000020E137E240E050E00E9424B0CA01B9015B
:103010002AE030E040E050E00E9424B0605D609320
:10302000850360E288EEC81683E0D806E104F10467
:103030008CF0C701B60128EE33E040E050E00E947A
:1030400024B0CA01B9012AE030E040E050E00E941B
:1030500024B0605D6093860360E284E6C816D10404
:10306000E104F1048CF0C701B60124E630E040E051
:1030700050E00E9424B0CA01B9012AE030E040E0EB
:1030800050E00E9424B0605D609387038AE0882E40
:10309000912CA12CB12CC701B601A50194010E946D
:1030A00024B0C62FCA01B901A50194010E9424B021
:1030B000605D609388038EE280938903C05DC09356
:1030C0008A0384E893E0CF91FF90EF90DF90CF9058
:1030D000BF90AF909F908F9008956DEB77E386E05F
:1030E00095EB55CF20E030E040E251E4C701B60156
:1030F00062CFCF92DF92EF92FF92CF93DF9300D017
:1031000000D0CDB7DEB76B017C0120E030E0A90133
:103110000E9466A687FD1BC06DEB77E386E095E312
:10312000A70196010E94D5AC69837A838B839C8327
:10313000CE0101960E9417140F900F900F900F90E0
:10314000DF91CF91FF90EF90DF90CF9008956DEBDE
:1031500077E386E095EBE4CF8F929F92AF92BF9298
:10316000CF92DF92EF92FF92CF936B017C0120E030
:1031700030E0A9010E9466A687FD93C06DEB77E35E
:1031800086E095E3A70196010E94D5AC6B017C0116
:1031900020E030E040E251E40E94CCA620E030E0A4
:1031A0004AE754E40E94CCA64B015C0120E030E0E9
:1031B000A901C701B6010E9466A620E030E040EAFE
:1031C00050E487FF04C020E030E040EA50ECC50145
:1031D000B4010E94D5AC20E030E040E251E40E940E
:1031E000CFAD0E9441AE6B017C01C114D104E1045A
:1031F000F10409F45BC0F7FE59C0F094E094D09458
:10320000C094C11CD11CE11CF11C8DE2809385038C
:10321000C701B60128EE33E040E050E00E9424B040
:103220008AE0882E912CA12CB12CCA01B901A501EC
:1032300094010E9424B0605D609386038EE28093C7
:103240008703C701B60124E630E040E050E00E9469
:1032500024B0CA01B901A50194010E9424B0605DA7
:1032600060938803C701B601A50194010E9424B0B0
:10327000C62FCA01B901A50194010E9424B0605D66
:1032800060938903C05DC0938A0385E893E0CF9182
:10329000FF90EF90DF90CF90BF90AF909F908F9076
:1032A00008956DEB77E386E095EB6CCF80E2AECFCF
:1032B000CF93DF93EC01CB01BA010E946DA620E011
:1032C00030E040E251E40E94CFAD688379838A8385
:1032D0009B83DF91CF9108950E946DA620E030E09E
:1032E00040E251E40E94CFAD0C94B117CF93DF932D
:1032F000EC01CB01BA010E946DA62AE037ED43E252
:103300005DE30E94CFAD0E9448AE688379838A83D3
:103310009B83DF91CF9108950E946DA62AE037ED3F
:1033200043E25DE30E94CFAD0C949817CF93DF93F7
:10333000EC01CB01BA010E946DA62AE037ED43E211
:103340005DE30E94CFAD688379838A839B83DF919D
:10335000CF9108950E946DA62AE037ED43E25DE328
:103360000E94CFAD0C947918CF93DF93EC01CB0181
:10337000BA010E946DA6688379838A839B83DF915B
:10338000CF9108950E946DA60C947918CF93DF9386
:10339000EC01CB01BA010E946DA620E030E048ECC0
:1033A00052E40E94CFAD688379838A839B83DF9147
:1033B000CF910895CF92DF92EF92FF92CF93DF9358
:1033C00000D000D0CDB7DEB70E946DA620E030E07F
:1033D00048EC52E40E94CFAD6B017C0120E030E06C
:1033E000A9010E9466A62DEB37E346E055E387FF6F
:1033F00004C02DEB37E346E055EBC701B6010E9450
:10340000D5AC69837A838B839C83CE0101960E941D
:1034100016150F900F900F900F90DF91CF91FF90A6
:10342000EF90DF90CF900895CF93DF93EC01CB0125
:10343000BA010E946DA60E9441AE79836883DF9134
:10344000CF9108950E946DA60E9441AECB010C94CD
:10345000CF16CF93DF93EC01CB01BA010E946DA68A
:1034600020E030E04AE754E40E94CFAD68837983DE
:103470008A839B83DF91CF9108950E946DA620E0FF
:1034800030E04AE754E40E94CFAD0C94AC180F939F
:103490001F93522F2091CB0C3091CC0C2817390759
:1034A00021F19093CC0C8093CB0C8B0130E020E089
:1034B00000939304109394042093950430939604FE
:1034C00040938C0450938D04805D9B4321F41092B3
:1034D00083031092810382E08093290181E080932D
:1034E000A30410928003109282031F910F910895FC
:1034F00020E040E070E060E08CE69EE10C94471A2A
:1035000021E020938303FC0180819181A281B3811A
:103510008093100190931101A0931201B0931301B5
:1035200020E040E070E060E08091860490918704A4
:103530000C94471ACF93DF9300D000D0CDB7DEB7FD
:103540008DEC9CECACECBCE389839A83AB83BC83AD
:10355000CE0101960E94801A0F900F900F900F904D
:10356000DF91CF910895CF93DF9300D000D0CDB7F6
:10357000DEB78DEC9CECACECBDE389839A83AB8326
:10358000BC83CE0101960E94801A0F900F900F907D
:103590000F90DF91CF910895CF93DF9300D000D0AB
:1035A000CDB7DEB780E090E0A0E8BFE389839A83DF
:1035B000AB83BC83CE0101960E94801A0F900F90BE
:1035C0000F900F90DF91CF910895CF93DF9300D0AC
:1035D00000D0CDB7DEB780E090E0A0E2B1E489830F
:1035E0009A83AB83BC83CE0101960E94801A0F9010
:1035F0000F900F900F90DF91CF9108958091A50CBF
:103600009091A60C891B8F7039F481E09091270569
:10361000913019F080E0089581E00895FC01A081C7
:10362000B1811C92A281B3818C918F5F8C930280B7
:10363000F381E02D90818CE0989F800D1124EDECBA
:10364000FCE013AE84AF0895FC01808108950097DB
:1036500051F0FC0180E09191992331F0907C9038F9
:10366000D1F38F5FF8CF80E008955B9800C087FDAD
:103670004BC0409800C000C05B9A00C000C05B987F
:1036800000C086FD4DC0409800C000C05B9A00C0DD
:1036900000C05B9800C085FD41C0409800C000C0DC
:1036A0005B9A00C000C05B9800C084FD35C04098A4
:1036B00000C000C05B9A00C000C05B9800C083FDE2
:1036C00029C0409800C000C05B9A00C000C05B9851
:1036D00000C082FD1DC0409800C000C05B9A00C0C1
:1036E00000C05B9800C081FD11C0409800C000C0C0
:1036F0005B9A00C000C05B9800C0409800C000C04A
:103700005B9A00C000C00895409AB4CF409AEECFB3
:10371000409AE2CF409AD6CF409ACACF409ABECFC5
:10372000409AB2CFBF92CF92DF92EF92FF920F9367
:103730001F93CF93DF936B01E9014A3009F4E1C095
:10374000453109F089C0DB011296ED91FC9112819F
:10375000C681D781419A00C0000086E290E00197BF
:10376000F0F7012F0295007F20E1B22EB10E88EF15
:103770000E94351B00C0000086E290E00197F0F740
:10378000103208F0A8C0812F807780680E94351B16
:10379000802F0E94351B00C0000086E290E0019758
:1037A000F0F780E80E94351B80E00E94351B00C0C6
:1037B000000086E290E00197F0F78AEF0E94351B47
:1037C00000C0000086E290E00197F0F77E01B0E1D2
:1037D000EB0EF11C8881807F0E94351B89918295B8
:1037E000807F0E94351BCE15DF05A1F700C00000C9
:1037F00086E290E00197F0F71F5F005F1B11B7CFE3
:103800004198D6011296ED91FC9180819281980F9A
:1038100092832181921708F0CAC194819F5F94839B
:103820009381890F821710F08FEF820F8383458178
:1038300050E0440F551F70E060E0868197810E9440
:1038400066B081E0DF91CF911F910F91FF90EF90D3
:10385000DF90CF90BF900895FB0102811381423326
:1038600009F4A7C108F4AFC1463409F49CC1473438
:1038700009F4A4C14B3329F789812B81D801129611
:103880007C91129713963C91213009F4E1C12330C9
:1038900009F0C2C148EF480F582F91E0341708F4DF
:1038A00090E031E0541708F030E0492F432B61E0FD
:1038B000571708F460E0462319F4932309F4C1CFA5
:1038C000FA8030E0F901E05AFE4FD080245A3E4F92
:1038D000F901E080BAC180EE810F8068807F0E948C
:1038E000351B812F8295807F0E94351B00C0000010
:1038F00086E290E00197F0F780E80E94351B80E8AF
:1039000054CF399A4198389A4098539A5B9A419A81
:1039100000C0000086E290E00197F0F788E790E0B1
:10392000CEE9DFE0FE013197F1F70197D9F788EF93
:103930000E94351B00C0000086E290E00197F0F77E
:1039400080E20E94351B80E00E94351B00C0000011
:1039500086E290E00197F0F780E00E94351B80E856
:103960000E94351B00C0000086E290E00197F0F74E
:1039700080E00E94351B80E10E94351B00C00000E2
:1039800086E290E00197F0F7CE010197F1F7CE01C2
:103990000197F1F7CE010197F1F7CE010197F1F709
:1039A000CE010197F1F7CE010197F1F7CE01019712
:1039B000F1F7CE010197F1F7CE010197F1F7CE01B2
:1039C0000197F1F7CE010197F1F7CE010197F1F7D9
:1039D000CE010197F1F7CE010197F1F72197F1F7A9
:1039E00080E20E94351B80E40E94351B00C000006D
:1039F00086E290E00197F0F780E20E94351B80E6B6
:103A00000E94351B00C0000086E290E00197F0F7AD
:103A1000D0E0C0E08C2F807780680E94351B8D2F0E
:103A20000E94351B00C0000086E290E00197F0F78D
:103A300080E80E94351B80E00E94351B00C000001A
:103A400086E290E00197F0F78AEF0E94351B00C0F4
:103A5000000086E290E00197F0F780E25B9800C0FA
:103A6000409800C000C05B9A00C000C05B9800C0D6
:103A7000409800C000C05B9A00C000C05B9800C0C6
:103A8000409800C000C05B9A00C000C05B9800C0B6
:103A9000409800C000C05B9A00C000C05B9800C0A6
:103AA000409800C000C05B9A00C000C05B9800C096
:103AB000409800C000C05B9A00C000C05B9800C086
:103AC000409800C000C05B9A00C000C05B9800C076
:103AD000409800C000C05B9A00C000C05B9800C066
:103AE000409800C000C05B9A00C000C05B9800C056
:103AF000409800C000C05B9A00C000C05B9800C046
:103B0000409800C000C05B9A00C000C05B9800C035
:103B1000409800C000C05B9A00C000C05B9800C025
:103B2000409800C000C05B9A00C000C05B9800C015
:103B3000409800C000C05B9A00C000C05B9800C005
:103B4000409800C000C05B9A00C000C05B9800C0F5
:103B5000409800C000C05B9A00C000C000C00000D8
:103B6000E6E2F0E03197F0F7815009F077CF88EF87
:103B70000E94351B00C0000086E290E00197F0F73C
:103B8000CF5FD05FC03209F045CF80E00E94351B87
:103B900080EC0E94351B00C0000086E290E0019797
:103BA000F0F741984ECEF801858188834ACE80E0B7
:103BB00049CEB901C8010E94B21243CED801119674
:103BC0008C9188833ECE443191F0473109F039CE53
:103BD0001882D80112968C911297898315968C9130
:103BE000159781508A8313968C918B832ACED801A6
:103BF00015964C91159750E0440F551F70E060E00A
:103C000016968D919C910E9466B0F8011282808177
:103C100081508383148215CE381708F412CE87178B
:103C200008F40FCEFA80E12CD12C243070F449CE68
:103C3000BE01C8010E94B212898198819D0D9883AE
:103C40008E0D8983FF0C09F4FCCDF7FEF6CFF0CF83
:103C500058E0580F482F21CE20911703022E000C58
:103C6000330B8217130641F08093170369E673E163
:103C700081ED9CE00C94EE120895089590E080E0B0
:103C80000895282F90912205833021F495FD0FC0CF
:103C900094FD0FC0892F90E0B0E0A0E004C0B6957D
:103CA000A795979587952A95D2F78170089581E019
:103CB000089580E0089581E008956EE073E482E065
:103CC0000C94099C63E173E481E00C94099C68E125
:103CD00073E480E00C94099C6CEB70E483E00C943A
:103CE000099CEF92FF920F931F93CF93DF93EC0108
:103CF0008B017A018A859B858617970731F0888129
:103D000099810E94EE121B870A87B70188819981E9
:103D10000E94DD982E813F81820F932F911D9F83FA
:103D20008E8390E080E0DF91CF911F910F91FF9003
:103D3000EF900895CF92DF92EF92FF920F931F932F
:103D4000CF93DF93CDB7DEB72C970FB6F894DEBFD5
:103D50000FBECDBFF090080DE090090D2091190322
:103D600021111DC041E454E06E2D8F2D0E94536738
:103D700090E080E0F80EF092080DE092090D99278E
:103D80002C960FB6F894DEBF0FBECDBFDF91CF915A
:103D90001F910F91FF90EF90DF90CF900895C0900A
:103DA000D50CD090D60C21ED3CE03A8329832F2D01
:103DB00030E03C832B832E2D30E03E832D8318860C
:103DC0001F827A8769871C861B8601EE13E29E019B
:103DD0002F5F3F4F4BE557E1BC01C6010E940E67C4
:103DE000B60181ED9CE00E94EE128F819885C2CFD2
:103DF0004F925F926F927F928F929F92AF92BF92FB
:103E0000CF92DF92EF92FF920F931F93CF93109276
:103E1000D4041092D3042FE3209325051092240597
:103E2000109223051092E3041092E4041092E5042A
:103E30001092E6049C01F90190812F5F3F4F903270
:103E4000D1F39E34C9F4818190ED980F9A3020F01F
:103E50008D3211F08B3281F432969F012F5F3F4FEC
:103E6000808180538A3008F473C09F012F5F3F4FD9
:103E70008081803209F46EC0F093E506E093E40699
:103E80008F010F5F1F4FC0816AE270E0C8010E947E
:103E90006DB0009731F0FC01319780818032E1F301
:103EA0001182CD3429F0C43519F0C73409F040C06F
:103EB000F80180810F5F1F4F8032D1F380538A3029
:103EC000B8F5C093250510922405109223056AE0E9
:103ED0009F012F5F3F4F4091230550912405649F20
:103EE000C001659F900D1124C0974081840F911DE2
:103EF00047FD9A959093240580932305F90120812D
:103F000020532A3028F3DF0131962C912032D9F347
:103F1000CD3461F58E31910539F0F0F4873191059A
:103F200019F08C31910511F5B093D404A093D3040A
:103F3000CF911F910F91FF90EF90DF90CF90BF90A6
:103F4000AF909F908F907F906F905F904F9008956B
:103F5000F90183CFF90189CF8537910538F087378B
:103F6000910510F3803A23E09207F1F21092D40405
:103F70001092D3045091E406C12CD12C7601C39445
:103F8000FD0131964C91442399F2413299F4CD349C
:103F900089F48032910571F4F093D404E093D30452
:103FA00063E270E0CF010E946DB0009709F2FC015E
:103FB0001082BECF41544A3108F07DC0DF012D91FF
:103FC000203209F460C030ED320F3A3008F46CC092
:103FD0002E3209F05AC0218120532A3008F464C0DF
:103FE0002091D3043091D4042115310509F05EC02D
:103FF000BF01615071097093D4046093D304A42F5E
:10400000B0E02601370104C0440C551C661C771C27
:104010004A95D2F78090E3049090E404A090E504E0
:10402000B090E60484289528A628B7288092E30457
:104030009092E404A092E504B092E60421153105C3
:10404000C1F1251BA350BD4F2C9320812154DF01CA
:104050002A3108F495CFDF012191222309F490CF72
:1040600030ED320F3A30B8F333ED320F323098F38F
:104070002B3289F39D012F5F3F4F4C91403209F065
:104080007FCFD901F7CFFD0199CF2D3219F02B3217
:1040900009F0A6CF218130ED320F3A3028F02E32D0
:1040A00009F09ECF228198CF9F01A9CF30E020E078
:1040B000A6CF20E0C7CF2091D3043091D404232B86
:1040C00021F6B093D404A093D304BFCF2FB7F894B4
:1040D00060912C0470912D0480912E0490912F04F6
:1040E0002FBF0895CF93DF93C0914C05D0914D051C
:1040F000209729F1609148057091490580914A0502
:1041000090914B050E9441AE6E5F7F4F24976C17D4
:104110007D07ACF470932304609322040E94662010
:10412000605E714B8F4F9F4F609324047093250402
:104130008093260490932704DF91CF9108951092E5
:104140002404109225041092260410922704F4CF20
:104150000C9472200F931F930E94662000914603D7
:10416000109147032091480330914903601B710B64
:10417000820B930B97FD0CC080B182FB882780F9DE
:1041800091E08927019B8260039B846080934503B3
:104190008091450381709091450391FD82609091DB
:1041A0004403981749F0813009F148F0823079F0E2
:1041B000833091F0809344031F910F9108959130C3
:1041C00079F09230B9F79091430391500CC0992344
:1041D00039F09330C1F3EECF9130A9F3923051F71B
:1041E000909143039F5F90934303E4CF992359F346
:1041F000933001F7F5CFCF9380911A03811154C00A
:104200001092080D1092090D10920A0D1092D60C02
:104210001092D50C1092D80C1092D70C1092DA0C88
:1042200081E08093D90C82E28093DB0C1092E00C49
:104230001092DF0CE4EFFCE022E03DE08FEF819391
:104240002E173F07E1F7C1E0C093F10C2CEE32E1ED
:104250003093E70C2093E60CC093E80C1092E90C25
:104260001092EA0C90E49093EB0C1092EC0C21EB82
:1042700032E13093030D2093020D28E031E03093BA
:10428000D40C2093D30C9BE09093F80C90E1909386
:10429000F90C91E19093F60C8093F50C8093F40C5B
:1042A0000E947A67C0931A0381E0809319038FE814
:1042B00094E09093960C8093950C1092980C109229
:1042C000970C0A98129A0998119A0B98139A0E94BF
:1042D000AA2010924303CF910895CF92DF92EF92DC
:1042E000FF92CF93C82F0E9466206B017C0124EAC5
:1042F00030E74DE75FE3609110017091110180910B
:104300001201909113010E9466A687FD18C08AEFE2
:1043100090E0A0E0B0E08C0D9D1DAE1DBF1D809310
:10432000330390933403A0933503B0933603C093C3
:104330000E01CF91FF90EF90DF90CF90089580E035
:1043400090E0DC01E8CF1F920F920FB60F9211247C
:104350002F933F938F939F93AF93BF9380912C04A0
:1043600090912D04A0912E04B0912F0430912B0434
:1043700023E0230F2D3758F50196A11DB11D209381
:104380002B0480932C0490932D04A0932E04B093BF
:104390002F048091300490913104A0913204B091A7
:1043A00033040196A11DB11D809330049093310414
:1043B000A0933204B0933304BF91AF919F918F913A
:1043C0003F912F910F900FBE0F901F90189526E8E8
:1043D000230F0296A11DB11DD2CFDB01ED91FC91FF
:1043E0000994AF92BF92CF92DF92EF92FF920F9318
:1043F0001F93CF93DF93EC01E62EF42E122F022FA2
:10440000D62ED20ECC24CA945C012CE1A20EB11C93
:104410008D2D801B083070F5812F887F8E0D912F98
:1044200096959695969528EF929F100D112411233D
:1044300071F197E019276A817B818C8FFD8E1F8E29
:104440001F5F17708FEF90E001C0880F1A95EAF791
:104450008E8F9E01245E3F4F4BE3CE01DF91CF91C3
:104460001F910F91FF90EF90DF90CF90BF90AF9092
:104470000C94ED216A817B818C8FFD8E1F8ECE8EF8
:1044800095014BE3CE010E94ED210850C1CFDF9191
:10449000CF911F910F91FF90EF90DF90CF90BF9041
:1044A000AF900895EF92FF921F93CF93DF93EC01AB
:1044B000EE85FF85309709F00995EA80FB80E9A930
:1044C000FAA982E00995E9A9FAA981E0099530E005
:1044D00020E045E1B701CE010E94ED21182F88238D
:1044E00041F09E012D5C3F4F47E1B701CE010E9494
:1044F000ED21E9A9FAA980E00995812FDF91CF91FB
:104500001F91FF90EF900895CF93DF93FC0125ADAD
:10451000211104C021E025AF0E947A67C091D30C1D
:10452000D091D40CE091020DF091030D82E0099539
:10453000E091020DF091030D81E0099530E020E05B
:1045400044E1BE0181ED9CE00E94ED2124E03DE0CC
:1045500047E1BE0181ED9CE00E94ED21E091020D5A
:10456000F091030D80E0DF91CF910994EF92FF92DB
:104570000F931F93CF93DF93EC01162FEC80FD80F8
:10458000F7010491C7010E944913A82F013049F196
:104590000FEF2C813D81F9013A9644913196549167
:1045A00033976491319684911136E8F070E0762F5C
:1045B0006627860F972F911D0097A9F08E0D9F1DDE
:1045C00041E6511730F5188A1B8A1C8A198A1A8A03
:1045D00090E080E0DF91CF911F910F91FF90EF90DD
:1045E00008950FE0D6CFF901369664913196849103
:1045F000113460F070E0762F6627860F972F911D9B
:10460000009721F08E0D9F1D41E4DBCFC70141963D
:10461000D8CF5417C0F2B0E0FC0164916F3F29F489
:104620000196451781F24F5FF7CF411333C0F9016F
:104630002491AC014F5F5F4FFC01222311F0223027
:1046400091F424912B8BFA0144914C8BFC0133960D
:10465000E491E88BFC013496E491E98BFC013596FA
:10466000E491EA8BB7CF2491322F3F7032503A8BCE
:1046700022952F70298BFA014491242F2F702C8BB7
:1046800042954F704B8BFC013296E491E295EF70AE
:10469000E88BA0CF3296649160236A0F7B2F711D47
:1046A000860F971FBECF0F93FC010150040F84A902
:1046B00096A9941788F0081710F4041778F421507D
:1046C000260F83A995A9961758F0281760F481E062
:1046D000261720F40F910895081778F780E0FACF95
:1046E0002817A8F7FBCF81E0F5CF5F926F927F92FA
:1046F0008F929F92AF92BF92CF92DF92EF92FF92F2
:104700000F931F93CF93DF93EC01562E142F622F3C
:104710000E94B6226C0180E0C114D104B1F08C81FA
:104720009D810E944913B82EFB88EC888989580E18
:104730001E198A89181B0E2D2F2D412F652DCE0194
:104740000E945323811111C08889DF91CF911F915D
:104750000F91FF90EF90DF90CF90BF90AF909F9020
:104760008F907F906F905F900895CB0CD11C87E065
:10477000F80EF694F694F694E10E4E01ECE18E0EEE
:10478000911C6F2C712C1E15F9F2052D560111C0CC
:10479000F50184916A817B810C8F1D8F1F8E8E8F16
:1047A00094014BE3CE010E94ED21FFEFAF1ABF0A47
:1047B000085F8A2D8C198F1558F3C60CD71C1F5F04
:1047C000E2CF9F92AF92BF92CF92DF92EF92FF9291
:1047D0000F931F93CF93DF93EC018B01942EA52EA3
:1047E0008A859B858617970731F0888199810E9479
:1047F000EE121B870A8788859985019649F5BC804A
:104800000A818E81080FC880D980D6015596ED9116
:10481000FC91C6010995B80EE92CFA2C10E0F701BD
:1048200021917F01211127C08E819F81810F911DD0
:104830009F838E8390E080E0DF91CF911F910F9155
:10484000FF90EF90DF90CF90BF90AF909F90089532
:104850000E811F81692D7A2D888199810E94DD98B2
:10486000800F912F911D288539852817390738F633
:1048700081E090E0E1CF4B2D602FC6010E947523AF
:10488000080F180FCCCFDF92EF92FF920F931F9378
:10489000CF93DF93EC01D62E1CAD0BAD7C0184E0F1
:1048A000E80EF11CE98DFA8DC7010995412F480FDB
:1048B0002D2D602FC7010E9475239BAD890F8BAFF3
:1048C00081E090E0DF91CF911F910F91FF90EF90E9
:1048D000DF9008954F925F926F927F928F929F9296
:1048E000AF92BF92CF92DF92EF92FF920F931F93FE
:1048F000CF93DF93EC01562E142F622E402E220F01
:10490000220F220F0E945323882319F1410E5E01CA
:104910008CE1A80EB11C862C912C762C052D6701FC
:10492000F60184916A817B810C8F1D8F1F8E8E8F83
:1049300095014BE3CE010E94ED21FFEFCF1ADF0A74
:104940007A94085F7110ECCFE80CF91C1F5F4112DC
:10495000E4CFDF91CF911F910F91FF90EF90DF9007
:10496000CF90BF90AF909F908F907F906F905F900F
:104970004F9008950F930FB70F9300916E000B7F28
:1049800000936E0078940F930BB70F930CB70F92B0
:104990001F922F933F934F935F936F937F938F93C8
:1049A0009F93AF93BF93EF93FF9311240E942C2901
:1049B000FF91EF91BF91AF919F918F917F916F91F7
:1049C0005F914F913F912F911F900F900CBF0F91CE
:1049D0000BBF0F910460F89400936E000F910FBF0E
:1049E0000F91189510925B05E4E4F5E011861086AE
:1049F0001092240410922504109226041092270489
:104A000012865D980895BC012091EC033091ED036E
:104A10004091EC035091ED032417350731F481E008
:104A20002617370709F080E008959A01F1CF0F9318
:104A30000FB70F9300916E000F930B7F00936E00E2
:104A400000916F000D7F00936F000F930BB70F93D2
:104A50000CB70F921F922F933F934F935F936F93D7
:104A60007F938F939F93AF93BF93EF93FF93112403
:104A70000E94202AFF91EF91BF91AF919F918F915A
:104A80007F916F915F914F913F912F911F900F9068
:104A90000CBF0F910BBF0F910260F89400936F0051
:104AA0000F9100936E000F910FBF0F911895809199
:104AB000D104982F977F9093D104982F937081E021
:104AC00011F080E008955E9A08955E988091D10477
:104AD00088608093D1040895282F30E041E050E0B1
:104AE00060E070E0082E04C0440F551F661F771F5A
:104AF0000A94D2F740955095609570959091D104A5
:104B000094239093D10426583E4FF901208192239B
:104B100021E019F020E0822F0895813079F038F0FB
:104B20008230C9F7159A90913C049B7F04C05E9A2D
:104B300090913C049E7F90933C04EDCF5E9A9091BF
:104B40003C049D7FF8CF80E00E946C2581E00E94AC
:104B50006C2582E00E946C250C945725282F81300B
:104B6000A1F098F0823099F081E090E0A0E0B0E010
:104B700004C0880F991FAA1FBB1F2A95D2F7209146
:104B8000D104822B8093D10408955E98EDCF1598BF
:104B9000EBCF843021E0920714F084E091E0909311
:104BA0004D0580934C050C9472208091880490915F
:104BB00089040C94C925CF93DF938091AE048111B1
:104BC00019C0C0912301D0912401219720E030E049
:104BD00040E05FE3609148057091490580914A0586
:104BE00090914B050E94D5AC0E9441AE21E06C171C
:104BF0007D070CF020E0822FDF91CF9108950E9475
:104C0000DB25882341F020E040E070E060E08DE4A7
:104C100099E30C94471A0C94781AAF92BF92CF92F2
:104C2000DF92EF92FF920F931F93CF93DF93CBEC22
:104C3000DBE00FEE16E08BEDA82E8BE0B82EC12C3A
:104C4000D12C7601C39469917991899199910E94AF
:104C50006BA6288939894A895B890E94CCA60E9463
:104C600048AEF80161937193819391938F01C616B9
:104C7000D706E806F90610F46B017C01AC16BD06F8
:104C800011F76FEF7FEFCB01A70196010E9498AC5F
:104C90002093FF06309300074093010750930207CB
:104CA000DF91CF911F910F91FF90EF90DF90CF9008
:104CB000BF90AF9008950F931F93CF93DF930FEDA5
:104CC0001BE0C8E0D7E0F801219131914191519169
:104CD0008F0160E070E080E89FE30E94CFAD6993B0
:104CE000799389939993F7E0C831DF0761F70E94C0
:104CF000E47CDF91CF911F910F910C940D260C94C1
:104D00005B260C945B260C945B260C945B260C941F
:104D10000D260C940D260C940D260C940D269091C6
:104D2000A50C8091A60C981306C08091180790914D
:104D30001907892B19F00E947468F1CF089590919A
:104D4000A50C8091A60C981308C08091180790912B
:104D50001907892B11F40C94A3250E947468EFCFD6
:104D60004F925F926F927F928F929F92AF92BF927B
:104D7000CF92DF92EF92FF920F931F93CF93DF9327
:104D8000CDB7DEB76A970FB6F894DEBF0FBECDBFC2
:104D90009A8F898F5B018A01DC01D6966D917D9196
:104DA0008D919C91D9970E946BA66B017C01F501B6
:104DB00020813181428153810E94CCA60E94B3ADF3
:104DC0002B013C01D8012D913D914D915C91C70182
:104DD000B6010E94CCA60E94B3AD4B015C01C30199
:104DE000B2010E9448AE698B7A8B8B8B9C8B6837A3
:104DF00071058105910540F428E730E040E050E07E
:104E0000298B3A8B4B8B5C8BC501B4010E9448AE59
:104E10006D877E878F87988B68377105810591052F
:104E200040F488E790E0A0E0B0E08D879E87AF87F0
:104E3000B88BE98DFA8DEE5BFF4F20813181428185
:104E4000538129833A834B835C83CA01B9010E9451
:104E50006DA62B013C0169897A898B899C890E9406
:104E60006BA669877A878B879C8720E030E0A90151
:104E7000C301B2010E9466A6882309F43BC1A701C1
:104E80009601C701B6010E94CCA64B015C012985A1
:104E90003A854B855C85CA01B9010E94CCA69B016D
:104EA000AC01C501B4010E94D4AC4B015C01A3016B
:104EB0009201C301B2010E94D5AC9B01AC01C501B6
:104EC000B4010E94CFAD0E94B3AD0E9448AE6D8385
:104ED0007E838F83988769817A818B819C8190956D
:104EE0008095709561957F4F8F4F9F4F0E946DA663
:104EF0004B015C016D857E858F8598890E946BA62C
:104F000069837A838B839C8320E030E0A901C5010B
:104F1000B4010E9466A6882309F4F0C029813A8171
:104F20004B815C81CA01B9010E94CCA66D8B7E8B3E
:104F30008F8B988FA7019601C701B6010E94CCA65E
:104F40009B01AC016D897E898F89988D0E94D4ACBC
:104F50006B017C01A5019401C501B4010E94D5AC8F
:104F60009B01AC01C701B6010E94CFAD0E9477AE94
:104F7000A98DBA8D95968D909D90AD90BC90989787
:104F8000750164012D813E814F815885C21AD30A73
:104F9000E40AF50A0E9448AEC61AD70AE80AF90AD6
:104FA000F7FE6EC020E030E0A901C301B2010E940B
:104FB00066A6882309F4A6C0C501B4010E946BA6A9
:104FC0006B017C01A3019201C301B2010E94D5AC27
:104FD0009B01AC01C701B6010E94CCA66B017C010C
:104FE00029853A854B855C85CA01B9010E94CCA60A
:104FF0009B01AC01C701B6010E94D4AC6B017C01DE
:1050000029813A814B815C81CA01B9010E94CCA6F9
:105010009B01AC01C701B6010E94D5AC6B017C01BC
:1050200020E030E040E850E4C301B2010E94CCA689
:105030009B01AC01C701B6010E94CFAD0E94B3AD88
:105040006B017C0120E030E0A9010E9435AF181609
:105050001CF0C12CD12C7601C701B6010E9448AECC
:105060006D837E838F83988786169706A806B90678
:1050700020F48D829E82AF82B886C12CD12C76011D
:105080008D819E81AF81B885E98DFA8D81A792A728
:10509000A3A7B4A7C80ED91EEA1EFB1EC5A6D6A696
:1050A000E7A6F0AA29893A894B895C8922AF33AFF8
:1050B00044AF55AFFE962D853E854F855889208398
:1050C0003183428353836A960FB6F894DEBF0FBED6
:1050D000CDBFDF91CF911F910F91FF90EF90DF90A7
:1050E000CF90BF90AF909F908F907F906F905F9088
:1050F0004F90089560E070E0CB01E5CE60E070E095
:10510000CB0134CF60E070E0CB0198CF90916F007D
:1051100081E091FD02C080E0089590916F009D7F35
:1051200090936F000895EFE6F0E0808182608083C5
:105130000895CF93C82F0E94862894E0C99F9001BC
:105140001124F901E151FC4F25503C4FD9014D91FB
:105150005D916D917C91408351836283738391E073
:105160009093EE03882319F0CF910C949328CF915C
:105170000895CF92DF92EF92FF9280919403329B39
:1051800060C08160809394038091940333995BC0E5
:105190008D7F8093940380919403349956C08B7FC4
:1051A00080939403C090DF03C0FE10C080913D0443
:1051B00080FF0CC08091940380FF08C08091260579
:1051C00081608093260580E00E949928D12CF12CE3
:1051D000E12CD701C601B695A7959795879580FFD5
:1051E00011C080913D04869580FF0CC0809194038E
:1051F00081FF08C08091260582608093260581E0AA
:105200000E94992882E0F694E794D794C7948A95EF
:10521000D1F7C0FE1CC080913D048695869580FF25
:1052200016C08091940382FF12C08091260584608D
:105230008093260582E0FF90EF90DF90CF900C9452
:1052400099288E7F9FCF8260A4CF8460A9CFFF90E2
:10525000EF90DF90CF90089580911A018F37A0F1E1
:105260008F5790914E0590932A04992389F15D9A66
:105270008F5F80931A018091290491E089278093A0
:10528000290481110E94AA208091190191E0980FB0
:1052900083300CF090E0813009F44EC0DCF48823B8
:1052A00069F1909319018091E20481110E94B9285B
:1052B0008091180790911907009729F00197909312
:1052C000190780931807089590912A04891780F28E
:1052D0005D98CECF8230D9F1833019F780912804C0
:1052E000811103C087E080932804809128048150B5
:1052F000809328048823A9F293E0D3CF80911801EA
:105300008F5F80311CF480931801CBCF109218016D
:105310008091AD0481110BC0209144053091450569
:10532000309347052093460581E08093AD041092A9
:10533000450510924405B5CF10927B0087E4809319
:105340007C0080917A00806480937A00AACF80915B
:105350007A0086FD0FC0409178005091790020912D
:10536000440530914505240F351F309345052093A2
:10537000440597CF92E095CF0E94862810920307AC
:1053800010920407109205071092060781110C94E1
:10539000932808950F931F938091A50C9091A60CCC
:1053A000891B8F7009F449C09091A20C992361F078
:1053B000833040F48FEF890F29F08093A20C90E0A6
:1053C00080E038C01092A20C8091A60C2BE4829F42
:1053D000C0011124865E984FFC01208120FDEFCF93
:1053E00040910307509104076091050770910607EB
:1053F000E95BFF4F0081118122813381401B510BFA
:10540000620B730B409303075093040760930507E7
:10541000709306072091A60C2F5F2F702093A30C8A
:105420003091A60C2091A40C321304C02091A30C3F
:105430002093A40C1F910F9108950E94BC29BFCF07
:105440002F923F924F925F926F927F928F929F9294
:10545000AF92BF92CF92DF92EF92FF920F931F9382
:10546000CF93DF9300D01F92CDB7DEB78FEF9FEFC2
:1054700090938900809388000AE00983312C212CC5
:1054800078948091E8039091E903A091EA03B091A8
:10549000EB03892B8A2B8B2B09F0C2C18091EE0381
:1054A0008823D1F08091EC039091ED031092EE03EC
:1054B000892B91F01092ED031092EC031092DF0310
:1054C0009091A50C8091A60C981731F08091A60CB4
:1054D0008F5F8F708093A60C8091EC039091ED0309
:1054E000892B09F49DC14091E4035091E50360913B
:1054F000E6037091E7038091E0039091E103A091AE
:10550000E203B091E3030091D20310E030E020E029
:10551000841B950BA60BB70B081719072A073B0727
:1055200010F4D901C8018A83840F951FA61FB71FE5
:105530008093E4039093E503A093E603B093E7031D
:10554000E1E0C090AA03D090AB03E090AC03F090F0
:10555000AD038091BA039091BB03A091BC03B091BD
:10556000BD03C80ED91EEA1EFB1EC092BA03D0921C
:10557000BB03E092BC03F092BD03F7FC33C0809103
:10558000A203082E000C990BAA0BBB0B4091FB0346
:105590005091FC036091FD037091FE03840F951FF1
:1055A000A61FB71F8093FB039093FC03A093FD03FA
:1055B000B093FE038091A6039091A703A091A80346
:1055C000B091A903A7019601281B390B4A0B5B0B6D
:1055D000DA01C9018093BA039093BB03A093BC0383
:1055E000B093BD030091AE031091AF032091B003BF
:1055F0003091B1038091BE039091BF03A091C0038D
:10560000B091C103080F191F2A1F3B1F0093BE034F
:105610001093BF032093C0033093C10337FD33C001
:105620008091A303082E000C990BAA0BBB0B409191
:10563000FF03509100046091010470910204840FF3
:10564000951FA61FB71F8093FF0390930004A0939C
:105650000104B09302048091A6039091A703A09146
:10566000A803B091A903B901A801481B590B6A0B03
:105670007B0BDB01CA018093BE039093BF03A09311
:10568000C003B093C1034091B2035091B303609142
:10569000B4037091B5038091C2039091C303A091AC
:1056A000C403B091C503480F591F6A1F7B1F409365
:1056B000C2035093C3036093C4037093C50377FD83
:1056C00033C08091A403082E000C990BAA0BBB0BCE
:1056D0008090030490900404A0900504B090060408
:1056E000880D991DAA1DBB1D80930304909304048B
:1056F000A0930504B09306048091A6039091A7039C
:10570000A091A803B091A9032A013B01481A590AA4
:105710006A0A7B0AD301C2018093C2039093C30338
:10572000A093C403B093C5038090B6039090B703D1
:10573000A090B803B090B9038091C6039091C703BD
:10574000A091C803B091C903880D991DAA1DBB1D66
:105750008093C6039093C703A093C803B093C90373
:10576000B7FD33C04090A503042C000C5508660813
:1057700077088090070490900804A0900904B090E6
:105780000A04840C951CA61CB71C809207049092F6
:105790000804A0920904B0920A048090A603909095
:1057A000A703A090A803B090A9032C013D014818BD
:1057B00059086A087B08530142018092C6039092FF
:1057C000C703A092C803B092C903E11104C0E091DD
:1057D0008400F0918500F7FE5F9A37FF469A77FFC5
:1057E0002B9AB7FF299AE0918400F0918500E0910F
:1057F0008400F0918500F7FE5F9837FF469877FFA9
:105800002B98B7FF29985A80552021F08091840069
:10581000909185000A8101500A83E0E0011191CE48
:105820008091E8039091E903A091EA03B091EB0322
:10583000892B8A2B8B2B09F007C4E091EC03F091A4
:10584000ED03309709F46EC48091E4039091E50371
:10585000A091E603B091E7034091E0035091E1038A
:105860006091E2037091E30384179507A607B707D9
:1058700008F44AC01092ED031092EC031092DF037B
:105880009091A50C8091A60C981709F44BC48091B7
:10589000A60C8F5F8F708093A60C60EDC62E67E01C
:1058A000D62EE12CF12C8091EC039091ED03892B05
:1058B00009F0C2C30E94CA299093ED038093EC03C0
:1058C000892B09F4B9C34090EC035090ED035B823F
:1058D0004A82D2018C9183FF71C2C20145960E9417
:1058E00055131092ED031092EC031092DF03909188
:1058F000A50C8091A60C9817E9F28091A60C8F5FF9
:105900008F708093A60CD6CF4091DB035091DC03BF
:105910006091DD037091DE03481759076A077B0722
:1059200008F4DCC08091D7039091D803A091D903EB
:10593000B091DA0341A952A963A974A94424859FAF
:10594000112D969F9001A69F300DA59F200D311D12
:10595000869F100D211D341D959F100D211D341D96
:10596000A49F100D211D341D949F110D241D341D65
:105970001695241D341D789F200D311D799F300D03
:10598000112442AD53AD64AD75AD420F531F611D7F
:10599000711D4093D3035093D4036093D503709348
:1059A000D60306A917A920AD31AD041715072607A0
:1059B000370740F40093D3031093D4032093D50307
:1059C0003093D6038090D3039090D403A090D50356
:1059D000B090D60328E231E141E0F901C590D590BD
:1059E000E590F490C814D904EA04FB0470F4B6946A
:1059F000A79497948794440F2C5F3F4F54E4652EEF
:105A000051E1752E6216730641F74093D20300E20E
:105A100080169104A104B10428F410E2812E912C87
:105A2000A12CB12C20E2821A9108A108B10881149E
:105A300038E09306A104B10408F42EC044E0949E1B
:105A400090011124285D324FF9013296459154910D
:105A5000F82DEE27F59FB001F49F610D7E1F06948F
:105A60006E1F7E1F1124AB0170E060E0F901C5904C
:105A7000D490F12CE12CC41AD50AE60AF70A8C0D51
:105A80009D1DAE1DBF1D8093D7039093D803A09397
:105A9000D903B093DA0307CFB501A40176956795D2
:105AA000579547959A012C7F285D364FF901C5908F
:105AB000D490F901329645915491082D0770049FB6
:105AC0009001059F300D1124F3E036952795FA9546
:105AD000E1F7C21AD30AF12CE12CD1CF4091CE03C9
